{
  "_format": "hh-sol-artifact-1",
  "contractName": "ConfidentialUSDCWrapper",
  "sourceName": "contracts/ConfidentialUSDCWrapper.sol",
  "abi": [
    {
      "inputs": [
        {
          "internalType": "address",
          "name": "underlyingToken",
          "type": "address"
        },
        {
          "internalType": "string",
          "name": "name",
          "type": "string"
        },
        {
          "internalType": "string",
          "name": "symbol",
          "type": "string"
        },
        {
          "internalType": "string",
          "name": "uri",
          "type": "string"
        }
      ],
      "stateMutability": "nonpayable",
      "type": "constructor"
    },
    {
      "inputs": [
        {
          "internalType": "uint256",
          "name": "requestId",
          "type": "uint256"
        }
      ],
      "name": "ERC7984InvalidGatewayRequest",
      "type": "error"
    },
    {
      "inputs": [
        {
          "internalType": "address",
          "name": "receiver",
          "type": "address"
        }
      ],
      "name": "ERC7984InvalidReceiver",
      "type": "error"
    },
    {
      "inputs": [
        {
          "internalType": "address",
          "name": "sender",
          "type": "address"
        }
      ],
      "name": "ERC7984InvalidSender",
      "type": "error"
    },
    {
      "inputs": [
        {
          "internalType": "address",
          "name": "caller",
          "type": "address"
        }
      ],
      "name": "ERC7984UnauthorizedCaller",
      "type": "error"
    },
    {
      "inputs": [
        {
          "internalType": "address",
          "name": "holder",
          "type": "address"
        },
        {
          "internalType": "address",
          "name": "spender",
          "type": "address"
        }
      ],
      "name": "ERC7984UnauthorizedSpender",
      "type": "error"
    },
    {
      "inputs": [
        {
          "internalType": "euint64",
          "name": "amount",
          "type": "bytes32"
        },
        {
          "internalType": "address",
          "name": "user",
          "type": "address"
        }
      ],
      "name": "ERC7984UnauthorizedUseOfEncryptedAmount",
      "type": "error"
    },
    {
      "inputs": [
        {
          "internalType": "address",
          "name": "holder",
          "type": "address"
        }
      ],
      "name": "ERC7984ZeroBalance",
      "type": "error"
    },
    {
      "inputs": [],
      "name": "InvalidKMSSignatures",
      "type": "error"
    },
    {
      "inputs": [
        {
          "internalType": "euint64",
          "name": "amount",
          "type": "bytes32"
        }
      ],
      "name": "InvalidUnwrapRequest",
      "type": "error"
    },
    {
      "inputs": [
        {
          "internalType": "uint8",
          "name": "bits",
          "type": "uint8"
        },
        {
          "internalType": "uint256",
          "name": "value",
          "type": "uint256"
        }
      ],
      "name": "SafeCastOverflowedUintDowncast",
      "type": "error"
    },
    {
      "inputs": [
        {
          "internalType": "address",
          "name": "token",
          "type": "address"
        }
      ],
      "name": "SafeERC20FailedOperation",
      "type": "error"
    },
    {
      "inputs": [],
      "name": "ZamaProtocolUnsupported",
      "type": "error"
    },
    {
      "anonymous": false,
      "inputs": [
        {
          "indexed": true,
          "internalType": "euint64",
          "name": "encryptedAmount",
          "type": "bytes32"
        },
        {
          "indexed": true,
          "internalType": "address",
          "name": "requester",
          "type": "address"
        }
      ],
      "name": "AmountDiscloseRequested",
      "type": "event"
    },
    {
      "anonymous": false,
      "inputs": [
        {
          "indexed": true,
          "internalType": "euint64",
          "name": "encryptedAmount",
          "type": "bytes32"
        },
        {
          "indexed": false,
          "internalType": "uint64",
          "name": "amount",
          "type": "uint64"
        }
      ],
      "name": "AmountDisclosed",
      "type": "event"
    },
    {
      "anonymous": false,
      "inputs": [
        {
          "indexed": true,
          "internalType": "address",
          "name": "from",
          "type": "address"
        },
        {
          "indexed": true,
          "internalType": "address",
          "name": "to",
          "type": "address"
        },
        {
          "indexed": true,
          "internalType": "euint64",
          "name": "amount",
          "type": "bytes32"
        }
      ],
      "name": "ConfidentialTransfer",
      "type": "event"
    },
    {
      "anonymous": false,
      "inputs": [
        {
          "indexed": true,
          "internalType": "address",
          "name": "holder",
          "type": "address"
        },
        {
          "indexed": true,
          "internalType": "address",
          "name": "operator",
          "type": "address"
        },
        {
          "indexed": false,
          "internalType": "uint48",
          "name": "until",
          "type": "uint48"
        }
      ],
      "name": "OperatorSet",
      "type": "event"
    },
    {
      "anonymous": false,
      "inputs": [
        {
          "indexed": false,
          "internalType": "bytes32[]",
          "name": "handlesList",
          "type": "bytes32[]"
        },
        {
          "indexed": false,
          "internalType": "bytes",
          "name": "abiEncodedCleartexts",
          "type": "bytes"
        }
      ],
      "name": "PublicDecryptionVerified",
      "type": "event"
    },
    {
      "anonymous": false,
      "inputs": [
        {
          "indexed": true,
          "internalType": "address",
          "name": "receiver",
          "type": "address"
        },
        {
          "indexed": false,
          "internalType": "euint64",
          "name": "encryptedAmount",
          "type": "bytes32"
        },
        {
          "indexed": false,
          "internalType": "uint64",
          "name": "cleartextAmount",
          "type": "uint64"
        }
      ],
      "name": "UnwrapFinalized",
      "type": "event"
    },
    {
      "anonymous": false,
      "inputs": [
        {
          "indexed": true,
          "internalType": "address",
          "name": "receiver",
          "type": "address"
        },
        {
          "indexed": false,
          "internalType": "euint64",
          "name": "amount",
          "type": "bytes32"
        }
      ],
      "name": "UnwrapRequested",
      "type": "event"
    },
    {
      "inputs": [
        {
          "internalType": "address",
          "name": "account",
          "type": "address"
        }
      ],
      "name": "confidentialBalanceOf",
      "outputs": [
        {
          "internalType": "euint64",
          "name": "",
          "type": "bytes32"
        }
      ],
      "stateMutability": "view",
      "type": "function"
    },
    {
      "inputs": [],
      "name": "confidentialProtocolId",
      "outputs": [
        {
          "internalType": "uint256",
          "name": "",
          "type": "uint256"
        }
      ],
      "stateMutability": "view",
      "type": "function"
    },
    {
      "inputs": [],
      "name": "confidentialTotalSupply",
      "outputs": [
        {
          "internalType": "euint64",
          "name": "",
          "type": "bytes32"
        }
      ],
      "stateMutability": "view",
      "type": "function"
    },
    {
      "inputs": [
        {
          "internalType": "address",
          "name": "to",
          "type": "address"
        },
        {
          "internalType": "externalEuint64",
          "name": "encryptedAmount",
          "type": "bytes32"
        },
        {
          "internalType": "bytes",
          "name": "inputProof",
          "type": "bytes"
        }
      ],
      "name": "confidentialTransfer",
      "outputs": [
        {
          "internalType": "euint64",
          "name": "",
          "type": "bytes32"
        }
      ],
      "stateMutability": "nonpayable",
      "type": "function"
    },
    {
      "inputs": [
        {
          "internalType": "address",
          "name": "to",
          "type": "address"
        },
        {
          "internalType": "euint64",
          "name": "amount",
          "type": "bytes32"
        }
      ],
      "name": "confidentialTransfer",
      "outputs": [
        {
          "internalType": "euint64",
          "name": "",
          "type": "bytes32"
        }
      ],
      "stateMutability": "nonpayable",
      "type": "function"
    },
    {
      "inputs": [
        {
          "internalType": "address",
          "name": "to",
          "type": "address"
        },
        {
          "internalType": "euint64",
          "name": "amount",
          "type": "bytes32"
        },
        {
          "internalType": "bytes",
          "name": "data",
          "type": "bytes"
        }
      ],
      "name": "confidentialTransferAndCall",
      "outputs": [
        {
          "internalType": "euint64",
          "name": "transferred",
          "type": "bytes32"
        }
      ],
      "stateMutability": "nonpayable",
      "type": "function"
    },
    {
      "inputs": [
        {
          "internalType": "address",
          "name": "to",
          "type": "address"
        },
        {
          "internalType": "externalEuint64",
          "name": "encryptedAmount",
          "type": "bytes32"
        },
        {
          "internalType": "bytes",
          "name": "inputProof",
          "type": "bytes"
        },
        {
          "internalType": "bytes",
          "name": "data",
          "type": "bytes"
        }
      ],
      "name": "confidentialTransferAndCall",
      "outputs": [
        {
          "internalType": "euint64",
          "name": "transferred",
          "type": "bytes32"
        }
      ],
      "stateMutability": "nonpayable",
      "type": "function"
    },
    {
      "inputs": [
        {
          "internalType": "address",
          "name": "from",
          "type": "address"
        },
        {
          "internalType": "address",
          "name": "to",
          "type": "address"
        },
        {
          "internalType": "externalEuint64",
          "name": "encryptedAmount",
          "type": "bytes32"
        },
        {
          "internalType": "bytes",
          "name": "inputProof",
          "type": "bytes"
        }
      ],
      "name": "confidentialTransferFrom",
      "outputs": [
        {
          "internalType": "euint64",
          "name": "transferred",
          "type": "bytes32"
        }
      ],
      "stateMutability": "nonpayable",
      "type": "function"
    },
    {
      "inputs": [
        {
          "internalType": "address",
          "name": "from",
          "type": "address"
        },
        {
          "internalType": "address",
          "name": "to",
          "type": "address"
        },
        {
          "internalType": "euint64",
          "name": "amount",
          "type": "bytes32"
        }
      ],
      "name": "confidentialTransferFrom",
      "outputs": [
        {
          "internalType": "euint64",
          "name": "transferred",
          "type": "bytes32"
        }
      ],
      "stateMutability": "nonpayable",
      "type": "function"
    },
    {
      "inputs": [
        {
          "internalType": "address",
          "name": "from",
          "type": "address"
        },
        {
          "internalType": "address",
          "name": "to",
          "type": "address"
        },
        {
          "internalType": "externalEuint64",
          "name": "encryptedAmount",
          "type": "bytes32"
        },
        {
          "internalType": "bytes",
          "name": "inputProof",
          "type": "bytes"
        },
        {
          "internalType": "bytes",
          "name": "data",
          "type": "bytes"
        }
      ],
      "name": "confidentialTransferFromAndCall",
      "outputs": [
        {
          "internalType": "euint64",
          "name": "transferred",
          "type": "bytes32"
        }
      ],
      "stateMutability": "nonpayable",
      "type": "function"
    },
    {
      "inputs": [
        {
          "internalType": "address",
          "name": "from",
          "type": "address"
        },
        {
          "internalType": "address",
          "name": "to",
          "type": "address"
        },
        {
          "internalType": "euint64",
          "name": "amount",
          "type": "bytes32"
        },
        {
          "internalType": "bytes",
          "name": "data",
          "type": "bytes"
        }
      ],
      "name": "confidentialTransferFromAndCall",
      "outputs": [
        {
          "internalType": "euint64",
          "name": "transferred",
          "type": "bytes32"
        }
      ],
      "stateMutability": "nonpayable",
      "type": "function"
    },
    {
      "inputs": [],
      "name": "contractURI",
      "outputs": [
        {
          "internalType": "string",
          "name": "",
          "type": "string"
        }
      ],
      "stateMutability": "view",
      "type": "function"
    },
    {
      "inputs": [],
      "name": "decimals",
      "outputs": [
        {
          "internalType": "uint8",
          "name": "",
          "type": "uint8"
        }
      ],
      "stateMutability": "view",
      "type": "function"
    },
    {
      "inputs": [
        {
          "internalType": "euint64",
          "name": "encryptedAmount",
          "type": "bytes32"
        },
        {
          "internalType": "uint64",
          "name": "cleartextAmount",
          "type": "uint64"
        },
        {
          "internalType": "bytes",
          "name": "decryptionProof",
          "type": "bytes"
        }
      ],
      "name": "discloseEncryptedAmount",
      "outputs": [],
      "stateMutability": "nonpayable",
      "type": "function"
    },
    {
      "inputs": [
        {
          "internalType": "euint64",
          "name": "burntAmount",
          "type": "bytes32"
        },
        {
          "internalType": "uint64",
          "name": "burntAmountCleartext",
          "type": "uint64"
        },
        {
          "internalType": "bytes",
          "name": "decryptionProof",
          "type": "bytes"
        }
      ],
      "name": "finalizeUnwrap",
      "outputs": [],
      "stateMutability": "nonpayable",
      "type": "function"
    },
    {
      "inputs": [
        {
          "internalType": "address",
          "name": "holder",
          "type": "address"
        },
        {
          "internalType": "address",
          "name": "spender",
          "type": "address"
        }
      ],
      "name": "isOperator",
      "outputs": [
        {
          "internalType": "bool",
          "name": "",
          "type": "bool"
        }
      ],
      "stateMutability": "view",
      "type": "function"
    },
    {
      "inputs": [],
      "name": "name",
      "outputs": [
        {
          "internalType": "string",
          "name": "",
          "type": "string"
        }
      ],
      "stateMutability": "view",
      "type": "function"
    },
    {
      "inputs": [
        {
          "internalType": "address",
          "name": "",
          "type": "address"
        },
        {
          "internalType": "address",
          "name": "from",
          "type": "address"
        },
        {
          "internalType": "uint256",
          "name": "amount",
          "type": "uint256"
        },
        {
          "internalType": "bytes",
          "name": "data",
          "type": "bytes"
        }
      ],
      "name": "onTransferReceived",
      "outputs": [
        {
          "internalType": "bytes4",
          "name": "",
          "type": "bytes4"
        }
      ],
      "stateMutability": "nonpayable",
      "type": "function"
    },
    {
      "inputs": [],
      "name": "rate",
      "outputs": [
        {
          "internalType": "uint256",
          "name": "",
          "type": "uint256"
        }
      ],
      "stateMutability": "view",
      "type": "function"
    },
    {
      "inputs": [
        {
          "internalType": "euint64",
          "name": "encryptedAmount",
          "type": "bytes32"
        }
      ],
      "name": "requestDiscloseEncryptedAmount",
      "outputs": [],
      "stateMutability": "nonpayable",
      "type": "function"
    },
    {
      "inputs": [
        {
          "internalType": "address",
          "name": "operator",
          "type": "address"
        },
        {
          "internalType": "uint48",
          "name": "until",
          "type": "uint48"
        }
      ],
      "name": "setOperator",
      "outputs": [],
      "stateMutability": "nonpayable",
      "type": "function"
    },
    {
      "inputs": [
        {
          "internalType": "bytes4",
          "name": "interfaceId",
          "type": "bytes4"
        }
      ],
      "name": "supportsInterface",
      "outputs": [
        {
          "internalType": "bool",
          "name": "",
          "type": "bool"
        }
      ],
      "stateMutability": "view",
      "type": "function"
    },
    {
      "inputs": [],
      "name": "symbol",
      "outputs": [
        {
          "internalType": "string",
          "name": "",
          "type": "string"
        }
      ],
      "stateMutability": "view",
      "type": "function"
    },
    {
      "inputs": [],
      "name": "underlying",
      "outputs": [
        {
          "internalType": "contract IERC20",
          "name": "",
          "type": "address"
        }
      ],
      "stateMutability": "view",
      "type": "function"
    },
    {
      "inputs": [
        {
          "internalType": "address",
          "name": "from",
          "type": "address"
        },
        {
          "internalType": "address",
          "name": "to",
          "type": "address"
        },
        {
          "internalType": "externalEuint64",
          "name": "encryptedAmount",
          "type": "bytes32"
        },
        {
          "internalType": "bytes",
          "name": "inputProof",
          "type": "bytes"
        }
      ],
      "name": "unwrap",
      "outputs": [],
      "stateMutability": "nonpayable",
      "type": "function"
    },
    {
      "inputs": [
        {
          "internalType": "address",
          "name": "from",
          "type": "address"
        },
        {
          "internalType": "address",
          "name": "to",
          "type": "address"
        },
        {
          "internalType": "euint64",
          "name": "amount",
          "type": "bytes32"
        }
      ],
      "name": "unwrap",
      "outputs": [],
      "stateMutability": "nonpayable",
      "type": "function"
    },
    {
      "inputs": [
        {
          "internalType": "address",
          "name": "to",
          "type": "address"
        },
        {
          "internalType": "uint256",
          "name": "amount",
          "type": "uint256"
        }
      ],
      "name": "wrap",
      "outputs": [],
      "stateMutability": "nonpayable",
      "type": "function"
    }
  ],
  "bytecode": "0x60e080604052346106e257612a19803803809161001c8285610701565b833981016080828203126106e25781516001600160a01b038116908190036106e25760208301516001600160401b0381116106e2578261005d91850161073f565b60408401519093906001600160401b0381116106e2578361007f91830161073f565b60608201519093906001600160401b0381116106e25761009f920161073f565b906100a8610820565b50466001036105f6576100b9610820565b506040516100c6816106e6565b5f81525f60208201525f60408201525b80517f9e7b61f58c47dc699ac88507c4f5bb9f121c03808c5676a8078fe583e464970080546001600160a01b03199081166001600160a01b039384161790915560208301517f9e7b61f58c47dc699ac88507c4f5bb9f121c03808c5676a8078fe583e4649701805483169184169190911790556040909201517f9e7b61f58c47dc699ac88507c4f5bb9f121c03808c5676a8078fe583e46497028054909316911617905583516001600160401b03811161042c57600354600181811c911680156105ec575b602082101461040e57601f8111610589575b50602094601f8211600114610526579481929394955f9261051b575b50508160011b915f199060031b1c1916176003555b82516001600160401b03811161042c57600454600181811c91168015610511575b602082101461040e57601f81116104ae575b506020601f821160011461044b57819293945f92610440575b50508160011b915f199060031b1c1916176004555b8151916001600160401b03831161042c57600554600181811c91168015610422575b602082101461040e57601f81116103c8575b50602090601f8411600114610360576102ad93915f9183610355575b50508160011b915f199060031b1c1916176005555b80608052610785565b60ff81169060068211156103475750600660a0526005190160ff81116103335760ff16604d811161033357600a0a60c0525b6040516121da908161083f823960805181818161071b0152818161096301528181610a540152610be3015260a05181610e1d015260c051818181610697015281816109ac01528181610b890152610ea40152f35b634e487b7160e01b5f52601160045260245ffd5b60a05250600160c0526102df565b015190505f8061028f565b90601f1984169160055f52815f20925f5b8181106103b057509160019391866102ad979410610398575b505050811b016005556102a4565b01515f1960f88460031b161c191690555f808061038a565b92936020600181928786015181550195019301610371565b60055f5260205f20601f850160051c81019160208610610404575b601f0160051c01905b8181106103f95750610273565b5f81556001016103ec565b90915081906103e3565b634e487b7160e01b5f52602260045260245ffd5b90607f1690610261565b634e487b7160e01b5f52604160045260245ffd5b015190505f8061022a565b601f1982169060045f52805f20915f5b8181106104965750958360019596971061047e575b505050811b0160045561023f565b01515f1960f88460031b161c191690555f8080610470565b9192602060018192868b01518155019401920161045b565b60045f527f8a35acfbc15ff81a39ae7d344fd709f28e8600b4aa8c65c6b64bfe7fe36bd19b601f830160051c81019160208410610507575b601f0160051c01905b8181106104fc5750610211565b5f81556001016104ef565b90915081906104e6565b90607f16906101ff565b015190505f806101c9565b601f1982169560035f52805f20915f5b88811061057157508360019596979810610559575b505050811b016003556101de565b01515f1960f88460031b161c191690555f808061054b565b91926020600181928685015181550194019201610536565b60035f527fc2575a0e9e593c00f959f8c92f12db2869c3395a3b0502d05e2516446f71f85b601f830160051c810191602084106105e2575b601f0160051c01905b8181106105d757506101ad565b5f81556001016105ca565b90915081906105c1565b90607f169061019b565b4662aa36a70361066557610608610820565b50604051610615816106e6565b73f0ffdc93b7e186bc2f8cb3daa75d86d1930a433d81527392c920834ec8941d2c77d188936e1f7a6f49c127602082015273be0e383937d564d7ff0bc3b46c51f0bf8d5c311a60408201526100d6565b46617a69036106d357610676610820565b50604051610683816106e6565b7350157cffd6bbfa2dece204a89ec419c23ef5755d815273e3a9105a3a932253a70f126eb1e3b589c643dd24602082015273be0e383937d564d7ff0bc3b46c51f0bf8d5c311a60408201526100d6565b6373cac13b60e01b5f5260045ffd5b5f80fd5b606081019081106001600160401b0382111761042c57604052565b601f909101601f19168101906001600160401b0382119082101761042c57604052565b6001600160401b03811161042c57601f01601f191660200190565b81601f820112156106e25780519061075682610724565b926107646040519485610701565b828452602083830101116106e257815f9260208093018386015e8301015290565b5f8091604051602081019063313ce56760e01b8252600481526107a9602482610701565b51916001600160a01b03165afa3d15610818573d906107c782610724565b916107d56040519384610701565b82523d5f602084013e5b8061080d575b6107ef5750601290565b6020818051810103126106e2576020015160ff811681036106e25790565b5060208151146107e5565b6060906107df565b6040519061082d826106e6565b5f604083828152826020820152015256fe6080806040526004361015610012575f80fd5b5f905f3560e01c90816301ffc9a714610fbb5750806306fdde0314610ec75780632c4e722e14610e8d5780632fb74e6214610e41578063313ce56714610e04578063344ff10114610dcd57806334c4574314610ca7578063537d3c5014610c475780635409522714610c295780635bb67a0514610adc5780635bebed7e14610aa45780635bf4ef0614610a785780636f307dc314610a3457806388a7ca5c146109165780638927b030146108f357806395d89b4114610836578063b1af281e146107a4578063b6363cf21461076d578063bf376c7a1461067b578063c7b8a75e146105ea578063d4febb961461055b578063d806180614610451578063de6421191461039b578063e064b9bb1461035a578063e8a3d48514610249578063e8c15fd41461021f5763eb3155b514610147575f80fd5b3461021c576101866101583661112c565b9161016d33846101683382611d71565b611219565b610181338261017c338261128b565b6111ee565b611422565b6001600160a01b037f9e7b61f58c47dc699ac88507c4f5bb9f121c03808c5676a8078fe583e46497005416803b1561021a57604051630f8e573b60e21b8152600481018390523360248201529083908290604490829084905af1801561020f576101f6575b602082604051908152f35b610201838092611166565b61020b57816101eb565b5080fd5b6040513d85823e3d90fd5b825b80fd5b503461021c576102466102313661112c565b9161024133846101683382611d71565b6115ee565b80f35b503461021c578060031936011261021c576040519080600554908160011c91600181168015610350575b60208410811461033c5783865290811561031557506001146102b8575b6102b4846102a081860382611166565b60405191829160208352602083019061100e565b0390f35b600581527f036b6384b5eca791c62761152d0c79bb0604c104a5fb6f4eb0703f3154bb3db0939250905b8082106102fb575090915081016020016102a082610290565b9192600181602092548385880101520191019092916102e2565b60ff191660208087019190915292151560051b850190920192506102a09150839050610290565b634e487b7160e01b83526022600452602483fd5b92607f1692610273565b503461021c5761018661039561038f610372366110d4565b61038896949695929395338861017c338261128b565b36916111b8565b906112dd565b91611422565b503461021c57608036600319011261021c576103b5611032565b60443567ffffffffffffffff811161021a576103d590369060040161105e565b6064359267ffffffffffffffff841161044d5761043f6104479261043161042561041e61041661040c6101869a369060040161105e565b99909536916111b8565b6024356112dd565b8533611422565b95869283863333611af2565b610439611e94565b90611c06565b9033906119ba565b90611cd4565b8480fd5b503461021c57602036600319011261021c5760043561047533826101683382611d71565b8160408051906104858183611166565b60018252601f1981013660208401378361049e83611242565b526001600160a01b037f9e7b61f58c47dc699ac88507c4f5bb9f121c03808c5676a8078fe583e46497005416803b15610557578151637d6e912360e11b81526020600482015292849184918290849082906104fd906024830190611455565b03925af190811561054e5750610539575b505033907f189c3bfae2e5ce7726b29d57bb6ed0f1a7ebcd153a863ff5ecb6cd998064c98c8380a380f35b8161054391611166565b61020b57815f61050e565b513d84823e3d90fd5b8380fd5b503461021c57604036600319011261021c57610575611032565b6024359065ffffffffffff821680920361021a576001600160a01b03903384526001602052604084208282165f5260205260405f208365ffffffffffff1982541617905560405192835216907f921a218a75d18e8ec5704851e6b234a85725b21a2521ce889622c35dedc1fa1260203392a380f35b503461021c57608036600319011261021c57610604611032565b61060c611048565b6044356064359167ffffffffffffffff831161044d57610186936106756104479361043161064161066997369060040161105e565b97909261065333826101683382611d71565b610662338761017c338261128b565b8686611422565b96879283878733611af2565b916119ba565b503461021c57604036600319011261021c57610695611032565b7f00000000000000000000000000000000000000000000000000000000000000006024356106c38282611281565b810381811161075957610749610744610755959461074f9461073f67ffffffffffffffff95604051906323b872dd60e01b6020830152336024830152306044830152606482015260648152610719608482611166565b7f0000000000000000000000000000000000000000000000000000000000000000611df1565b611263565b61187f565b16611e45565b906118b2565b5080f35b634e487b7160e01b85526011600452602485fd5b503461021c57604036600319011261021c57602061079a61078c611032565b610794611048565b9061128b565b6040519015158152f35b503461021c5761082e7f83bbbc07896439e5d950a6cead04cbc676180af7a61cecf43f5296475057f57160206107d93661108c565b9295906040926108288451926107ef8685611166565b60018452601f19860136898601378961080785611242565b5267ffffffffffffffff865193169687898501528884526103888785611166565b91611488565b51908152a280f35b503461021c578060031936011261021c576040519080600454908160011c916001811680156108e9575b60208410811461033c57838652908115610315575060011461088c576102b4846102a081860382611166565b600481527f8a35acfbc15ff81a39ae7d344fd709f28e8600b4aa8c65c6b64bfe7fe36bd19b939250905b8082106108cf575090915081016020016102a082610290565b9192600181602092548385880101520191019092916108b6565b92607f1692610860565b503461021c578060031936011261021c57602061090e61198b565b604051908152f35b503461021c57608036600319011261021c57610930611032565b50610939611048565b906044359160643567ffffffffffffffff811161021a5761095e90369060040161105e565b9390927f000000000000000000000000000000000000000000000000000000000000000093336001600160a01b03861603610a215760146109eb949596105f14610a1557505082905b6109e57f00000000000000000000000000000000000000000000000000000000000000009261074f67ffffffffffffffff6107496107448787611263565b50611281565b9081610a04575b604051632229f29760e21b8152602090f35b610a0d926115b0565b5f80806109f2565b3560601c9190506109a7565b63782c6ffd60e01b825233600452602482fd5b503461021c578060031936011261021c5760206040516001600160a01b037f0000000000000000000000000000000000000000000000000000000000000000168152f35b503461021c57610246610a9e61038f610a90366110d4565b9593959491929436916111b8565b916115ee565b503461021c57604036600319011261021c57602061090e610ac3611032565b60243590610ad633836101683382611d71565b33611422565b503461021c57610aeb3661108c565b939280849392935260066020526001600160a01b03604085205416928315610c1557610b879082865260066020526040862073ffffffffffffffffffffffffffffffffffffffff198154169055604093610828855192610b4b8785611166565b60018452601f19870136602086013785610b6485611242565b5267ffffffffffffffff87519316998a6020850152602084526103888885611166565b7f00000000000000000000000000000000000000000000000000000000000000009485810295818704148115171561075957610c078495967f2d4edf3c2943002120f53dab3f8940043f34799f4a92ab90f2f81f7dd004a49e957f00000000000000000000000000000000000000000000000000000000000000006115b0565b82519182526020820152a280f35b6368b187c760e11b85526004829052602485fd5b503461021c578060031936011261021c576020600254604051908152f35b503461021c57606036600319011261021c57610c61611032565b60443560243567ffffffffffffffff8211610557576101869261043f61044792610431610c9561042596369060040161105e565b96909261041e33826101683382611d71565b34610dc95760a0366003190112610dc957610cc0611032565b610cc8611048565b60643567ffffffffffffffff8111610dc957610ce890369060040161105e565b90916084359367ffffffffffffffff8511610dc95761067561044793610431610669610662610d33610d21610d3b9b369060040161105e565b9a9095610388338a61017c338261128b565b6044356112dd565b6001600160a01b037f9e7b61f58c47dc699ac88507c4f5bb9f121c03808c5676a8078fe583e4649700541690813b15610dc957604051630f8e573b60e21b815260048101829052336024820152915f908390604490829084905af1918215610dbe57602092610dae575b50604051908152f35b5f610db891611166565b5f610da5565b6040513d5f823e3d90fd5b5f80fd5b34610dc9576020366003190112610dc9576001600160a01b03610dee611032565b165f525f602052602060405f2054604051908152f35b34610dc9575f366003190112610dc957602060405160ff7f0000000000000000000000000000000000000000000000000000000000000000168152f35b34610dc9576060366003190112610dc957610e5a611032565b60443567ffffffffffffffff8111610dc957602091610e8661041661038861090e94369060040161105e565b9033611422565b34610dc9575f366003190112610dc95760206040517f00000000000000000000000000000000000000000000000000000000000000008152f35b34610dc9575f366003190112610dc9576040515f6003548060011c90600181168015610fb1575b602083108114610f9d57828552908115610f795750600114610f1b575b6102b4836102a081850382611166565b91905060035f527fc2575a0e9e593c00f959f8c92f12db2869c3395a3b0502d05e2516446f71f85b915f905b808210610f5f575090915081016020016102a0610f0b565b919260018160209254838588010152019101909291610f47565b60ff191660208086019190915291151560051b840190910191506102a09050610f0b565b634e487b7160e01b5f52602260045260245ffd5b91607f1691610eee565b34610dc9576020366003190112610dc9576004359063ffffffff60e01b8216809203610dc9576020916312563ca960e21b8114908115610ffd575b5015158152f35b6301ffc9a760e01b14905083610ff6565b805180835260209291819084018484015e5f828201840152601f01601f1916010190565b600435906001600160a01b0382168203610dc957565b602435906001600160a01b0382168203610dc957565b9181601f84011215610dc95782359167ffffffffffffffff8311610dc95760208381860195010111610dc957565b6060600319820112610dc9576004359160243567ffffffffffffffff81168103610dc957916044359067ffffffffffffffff8211610dc9576110d09160040161105e565b9091565b906080600319830112610dc9576004356001600160a01b0381168103610dc957916024356001600160a01b0381168103610dc95791604435916064359067ffffffffffffffff8211610dc9576110d09160040161105e565b6060906003190112610dc9576004356001600160a01b0381168103610dc957906024356001600160a01b0381168103610dc9579060443590565b90601f8019910116810190811067ffffffffffffffff82111761118857604052565b634e487b7160e01b5f52604160045260245ffd5b67ffffffffffffffff811161118857601f01601f191660200190565b9291926111c48261119c565b916111d26040519384611166565b829481845281830111610dc9578281602093845f960137010152565b156111f7575050565b906001600160a01b038092630f3e596760e31b5f52166004521660245260445ffd5b15611222575050565b6001600160a01b0392506367cfe80560e01b5f526004521660245260445ffd5b80511561124f5760200190565b634e487b7160e01b5f52603260045260245ffd5b811561126d570490565b634e487b7160e01b5f52601260045260245ffd5b811561126d570690565b6001600160a01b0316906001600160a01b03811682149182156112ad57505090565b9091505f5260016020526001600160a01b0360405f2091165f5260205265ffffffffffff60405f20541642111590565b61132d916020916001600160a01b035f5160206121ae5f395f51905f525416905f60405180968195829463045fc19560e11b8452600484015233602484015260806044840152608483019061100e565b6005606483015203925af1908115610dbe575f916113bc575b506001600160a01b037f9e7b61f58c47dc699ac88507c4f5bb9f121c03808c5676a8078fe583e46497005416803b15610dc957604051630f8e573b60e21b815260048101839052336024820152905f908290604490829084905af18015610dbe576113af575090565b5f6113b991611166565b90565b90506020813d6020116113e6575b816113d760209383611166565b81010312610dc957515f611346565b3d91506113ca565b156113f557565b63ee457ebf60e01b5f525f60045260245ffd5b1561140f57565b638d51880160e01b5f525f60045260245ffd5b906113b9929161143c6001600160a01b03821615156113ee565b6114506001600160a01b0383161515611408565b6119ba565b90602080835192838152019201905f5b8181106114725750505090565b8251845260209384019390920191600101611465565b91602061150a5f926001600160a01b037f9e7b61f58c47dc699ac88507c4f5bb9f121c03808c5676a8078fe583e46497025416906040519485809481936378542ead60e01b8352606060048401526114f86114e6606485018d611455565b8481036003190160248601528b61100e565b8381036003190160448501529061100e565b03925af1908115610dbe575f91611581575b5015611572577fc6366bab028b8d033cb362cfd1f2f3457ef4e92fc738b6788b90d5a7846367a09161156d61155f92604051938493604085526040850190611455565b90838203602085015261100e565b0390a1565b63cf6c44e960e01b5f5260045ffd5b6115a3915060203d6020116115a9575b61159b8183611166565b810190611d59565b5f61151c565b503d611591565b6115ec926001600160a01b036040519363a9059cbb60e01b60208601521660248401526044830152604482526115e7606483611166565b611df1565b565b906001600160a01b035f911692831561186c576001600160a01b0383163381148015611857575b611621908533916111ee565b801591821592611630846113ee565b156117fa5790611666826116475f94600254612001565b9190916116543082612132565b6002555b611660611e94565b91611c06565b94859361167585600254611cd4565b61167f3082612132565b6002556117ea575b506116923084612132565b7f67500e8d0ed826d2194f514dd0d8124f35648ab6e3fb5e6ed867134cffe661e98280a460409081516116c58382611166565b60018152601f198301366020830137836116de82611242565b526001600160a01b037f9e7b61f58c47dc699ac88507c4f5bb9f121c03808c5676a8078fe583e46497005416803b15610dc9578351637d6e912360e11b815260206004820152915f91839182908490829061173d906024830190611455565b03925af180156117e0576117cd575b5082815260066020526001600160a01b0382822054166117b957918160209284837f77d02d353c5629272875d11f1b34ec4c65d7430b075575b78cd2502034c469ee965260068552208573ffffffffffffffffffffffffffffffffffffffff1982541617905551908152a2565b634e487b7160e01b81526001600452602490fd5b6117d991505f90611166565b5f5f61174c565b83513d5f823e3d90fd5b6117f49084612132565b5f611687565b815f525f60205260405f20548015611844578161181c5f949361166693611f30565b9190916118293082612132565b6118338982612132565b848652856020526040862055611658565b826317fe473760e21b5f5260045260245ffd5b50611621611865338661128b565b9050611615565b83638d51880160e01b5f5260045260245ffd5b67ffffffffffffffff811161189b5767ffffffffffffffff1690565b6306dfcc6560e41b5f52604060045260245260445ffd5b6001600160a01b0381168015916118e78315946118ce86611408565b6118da81600254612001565b9091906116543082612132565b93849315611951576118fb84600254611cd4565b6119053082612132565b6002555b611941575b506119193083612132565b5f7f67500e8d0ed826d2194f514dd0d8124f35648ab6e3fb5e6ed867134cffe661e98180a490565b61194b9083612132565b5f61190e565b825f525f6020526119668460405f2054612028565b6119703082612132565b61197a8382612132565b835f525f60205260405f2055611909565b4660010361199857600190565b4662aa36a7036119a85761271190565b617a6946146119b5575f90565b5f1990565b9092916001600160a01b038216801592918315611aaa57806116476119e192600254612001565b9485936001600160a01b038216938415918215611a7057611a0487600254611cd4565b611a0e3082612132565b6002555b15611a60575b5015611a50575b50611a2a3084612132565b7f67500e8d0ed826d2194f514dd0d8124f35648ab6e3fb5e6ed867134cffe661e95f80a4565b611a5a9084612132565b5f611a1f565b611a6a9086612132565b5f611a18565b855f525f602052611a858760405f2054612028565b611a8f3082612132565b611a998582612132565b865f525f60205260405f2055611a12565b815f525f60205260405f205480156118445790611aca816119e193611f30565b919091611ad73082612132565b611ae18682612132565b845f525f60205260405f2055611658565b92959490939091803b15611bf55792826001600160a01b039360a49385602097169986604051998a9889976346083bfd60e01b8952166004880152166024860152604485015260806064850152816084850152848401375f838284010152601f801991011681010301815f875af15f9181611bc1575b50611bbd57823d15611bb6573d611b7e8161119c565b90611b8c6040519283611166565b81523d5f602083013e5b80519081611bb15782638d51880160e01b5f5260045260245ffd5b602001fd5b6060611b96565b9150565b9091506020813d602011611bed575b81611bdd60209383611166565b81010312610dc95751905f611b68565b3d9150611bd0565b505050505090506113b96001611ee2565b91908215611cc3575b8015611cb5575b8115611c9f575b6064602092935f6001600160a01b035f5160206121ae5f395f51905f5254166040519687958694637702dcff60e01b86526004860152602485015260448401525af1908115610dbe575f91611c70575090565b90506020813d602011611c97575b81611c8b60209383611166565b81010312610dc9575190565b3d9150611c7e565b602091506064611cad611e94565b925050611c1d565b50611cbe611e94565b611c16565b9150611cce5f611ee2565b91611c0f565b908115611d49575b8015611d37575b60209060646001600160a01b035f5160206121ae5f395f51905f525416935f60405195869485936303056db360e31b8552600485015260248401528160448401525af1908115610dbe575f91611c70575090565b506020611d42611e94565b9050611ce3565b9050611d53611e94565b90611cdc565b90816020910312610dc957518015158103610dc95790565b7f9e7b61f58c47dc699ac88507c4f5bb9f121c03808c5676a8078fe583e4649700546040516382027b6d60e01b815260048101929092526001600160a01b039283166024830152909160209183916044918391165afa908115610dbe575f91611dd8575090565b6113b9915060203d6020116115a95761159b8183611166565b905f602091828151910182855af115610dbe575f513d611e3c57506001600160a01b0381163b155b611e205750565b6001600160a01b0390635274afe760e01b5f521660045260245ffd5b60011415611e19565b5f5160206121ae5f395f51905f5254604051639cd07acb60e01b815260048101929092526001600160a01b0316816044815f602094600560248401525af1908115610dbe575f91611c70575090565b5f5160206121ae5f395f51905f5254604051639cd07acb60e01b81525f6004820152906001600160a01b0316816044815f602094600560248401525af1908115610dbe575f91611c70575090565b5f5160206121ae5f395f51905f5254604051639cd07acb60e01b815260048101929092526001600160a01b0316816044815f6020948160248401525af1908115610dbe575f91611c70575090565b9190918015611f575780611f51611f4a856113b9946120ad565b9482611cd4565b84611c06565b8215611ff1575060205f9260646001600160a01b035f5160206121ae5f395f51905f52541691604051958693849263f77f3f1d60e01b84526004840152816024840152600160f81b60448401525af1918215610dbe575f92611fbd575b506113b9611e94565b9091506020813d602011611fe9575b81611fd960209383611166565b81010312610dc95751905f611fb4565b3d9150611fcc565b9150611ffd6001611ee2565b9190565b91908215611ff1576120166113b99184612028565b9261202181856120ad565b9384611c06565b90811561209d575b801561208b575b60209060646001600160a01b035f5160206121ae5f395f51905f525416935f604051958694859363022f65e760e31b8552600485015260248401528160448401525af1908115610dbe575f91611c70575090565b506020612096611e94565b9050612037565b90506120a7611e94565b90612030565b908115612122575b8015612110575b60209060646001600160a01b035f5160206121ae5f395f51905f525416935f6040519586948593631391547f60e01b8552600485015260248401528160448401525af1908115610dbe575f91611c70575090565b50602061211b611e94565b90506120bc565b905061212c611e94565b906120b5565b6001600160a01b037f9e7b61f58c47dc699ac88507c4f5bb9f121c03808c5676a8078fe583e4649700541691823b15610dc957604051635ca4b5b160e11b815260048101929092526001600160a01b03166024820152905f908290604490829084905af18015610dbe576121a35750565b5f6115ec9161116656fe9e7b61f58c47dc699ac88507c4f5bb9f121c03808c5676a8078fe583e4649701a164736f6c634300081b000a",
  "linkReferences": {},
  "deployedLinkReferences": {}
}