{
  "_format": "hh-sol-artifact-1",
  "contractName": "PaymentGateway",
  "sourceName": "contracts/PaymentGateway.sol",
  "abi": [
    {
      "inputs": [],
      "stateMutability": "nonpayable",
      "type": "constructor"
    },
    {
      "inputs": [],
      "name": "ECDSAInvalidSignature",
      "type": "error"
    },
    {
      "inputs": [
        {
          "internalType": "uint256",
          "name": "length",
          "type": "uint256"
        }
      ],
      "name": "ECDSAInvalidSignatureLength",
      "type": "error"
    },
    {
      "inputs": [
        {
          "internalType": "bytes32",
          "name": "s",
          "type": "bytes32"
        }
      ],
      "name": "ECDSAInvalidSignatureS",
      "type": "error"
    },
    {
      "inputs": [],
      "name": "ZamaProtocolUnsupported",
      "type": "error"
    },
    {
      "anonymous": false,
      "inputs": [
        {
          "indexed": true,
          "internalType": "address",
          "name": "merchant",
          "type": "address"
        }
      ],
      "name": "MerchantRegistered",
      "type": "event"
    },
    {
      "anonymous": false,
      "inputs": [
        {
          "indexed": true,
          "internalType": "address",
          "name": "merchant",
          "type": "address"
        }
      ],
      "name": "MerchantRemoved",
      "type": "event"
    },
    {
      "anonymous": false,
      "inputs": [
        {
          "indexed": true,
          "internalType": "address",
          "name": "previousOwner",
          "type": "address"
        },
        {
          "indexed": true,
          "internalType": "address",
          "name": "newOwner",
          "type": "address"
        }
      ],
      "name": "OwnershipTransferred",
      "type": "event"
    },
    {
      "anonymous": false,
      "inputs": [
        {
          "indexed": true,
          "internalType": "bytes32",
          "name": "paymentId",
          "type": "bytes32"
        },
        {
          "indexed": true,
          "internalType": "address",
          "name": "merchant",
          "type": "address"
        },
        {
          "indexed": false,
          "internalType": "string",
          "name": "orderId",
          "type": "string"
        },
        {
          "indexed": false,
          "internalType": "enum PaymentType",
          "name": "paymentType",
          "type": "uint8"
        }
      ],
      "name": "PaymentProcessed",
      "type": "event"
    },
    {
      "anonymous": false,
      "inputs": [
        {
          "indexed": true,
          "internalType": "address",
          "name": "productRegistry",
          "type": "address"
        }
      ],
      "name": "ProductRegistryUpdated",
      "type": "event"
    },
    {
      "anonymous": false,
      "inputs": [
        {
          "indexed": true,
          "internalType": "address",
          "name": "refundManager",
          "type": "address"
        },
        {
          "indexed": false,
          "internalType": "bool",
          "name": "enabled",
          "type": "bool"
        }
      ],
      "name": "RefundManagerUpdated",
      "type": "event"
    },
    {
      "anonymous": false,
      "inputs": [
        {
          "indexed": true,
          "internalType": "bytes32",
          "name": "paymentId",
          "type": "bytes32"
        }
      ],
      "name": "RefundProcessed",
      "type": "event"
    },
    {
      "inputs": [],
      "name": "DOMAIN_SEPARATOR",
      "outputs": [
        {
          "internalType": "bytes32",
          "name": "",
          "type": "bytes32"
        }
      ],
      "stateMutability": "view",
      "type": "function"
    },
    {
      "inputs": [],
      "name": "confidentialProtocolId",
      "outputs": [
        {
          "internalType": "uint256",
          "name": "",
          "type": "uint256"
        }
      ],
      "stateMutability": "view",
      "type": "function"
    },
    {
      "inputs": [
        {
          "internalType": "address",
          "name": "merchant",
          "type": "address"
        },
        {
          "internalType": "uint256",
          "name": "bucket",
          "type": "uint256"
        }
      ],
      "name": "getMerchantMonthlyTotal",
      "outputs": [
        {
          "internalType": "euint64",
          "name": "",
          "type": "bytes32"
        }
      ],
      "stateMutability": "view",
      "type": "function"
    },
    {
      "inputs": [
        {
          "internalType": "address",
          "name": "merchant",
          "type": "address"
        }
      ],
      "name": "getMerchantRefundTotal",
      "outputs": [
        {
          "internalType": "euint64",
          "name": "",
          "type": "bytes32"
        }
      ],
      "stateMutability": "view",
      "type": "function"
    },
    {
      "inputs": [
        {
          "internalType": "address",
          "name": "merchant",
          "type": "address"
        }
      ],
      "name": "getMerchantTotal",
      "outputs": [
        {
          "internalType": "euint64",
          "name": "",
          "type": "bytes32"
        }
      ],
      "stateMutability": "view",
      "type": "function"
    },
    {
      "inputs": [
        {
          "internalType": "bytes32",
          "name": "paymentId",
          "type": "bytes32"
        }
      ],
      "name": "getPayment",
      "outputs": [
        {
          "internalType": "address",
          "name": "merchant",
          "type": "address"
        },
        {
          "internalType": "address",
          "name": "token",
          "type": "address"
        },
        {
          "internalType": "uint256",
          "name": "timestamp",
          "type": "uint256"
        },
        {
          "internalType": "bool",
          "name": "isRefunded",
          "type": "bool"
        },
        {
          "internalType": "string",
          "name": "orderId",
          "type": "string"
        },
        {
          "internalType": "enum PaymentType",
          "name": "paymentType",
          "type": "uint8"
        },
        {
          "internalType": "uint256",
          "name": "productId",
          "type": "uint256"
        }
      ],
      "stateMutability": "view",
      "type": "function"
    },
    {
      "inputs": [
        {
          "internalType": "uint256",
          "name": "bucket",
          "type": "uint256"
        }
      ],
      "name": "makeMerchantMonthlyTotalPublic",
      "outputs": [],
      "stateMutability": "nonpayable",
      "type": "function"
    },
    {
      "inputs": [],
      "name": "makeMerchantRefundTotalPublic",
      "outputs": [],
      "stateMutability": "nonpayable",
      "type": "function"
    },
    {
      "inputs": [],
      "name": "makeMerchantTotalPublic",
      "outputs": [],
      "stateMutability": "nonpayable",
      "type": "function"
    },
    {
      "inputs": [
        {
          "internalType": "address",
          "name": "",
          "type": "address"
        },
        {
          "internalType": "uint256",
          "name": "",
          "type": "uint256"
        }
      ],
      "name": "merchantMonthlyTotals",
      "outputs": [
        {
          "internalType": "euint64",
          "name": "",
          "type": "bytes32"
        }
      ],
      "stateMutability": "view",
      "type": "function"
    },
    {
      "inputs": [
        {
          "internalType": "address",
          "name": "",
          "type": "address"
        }
      ],
      "name": "merchantRefundTotals",
      "outputs": [
        {
          "internalType": "euint64",
          "name": "",
          "type": "bytes32"
        }
      ],
      "stateMutability": "view",
      "type": "function"
    },
    {
      "inputs": [
        {
          "internalType": "address",
          "name": "",
          "type": "address"
        }
      ],
      "name": "merchantTotals",
      "outputs": [
        {
          "internalType": "euint64",
          "name": "",
          "type": "bytes32"
        }
      ],
      "stateMutability": "view",
      "type": "function"
    },
    {
      "inputs": [
        {
          "internalType": "address",
          "name": "",
          "type": "address"
        }
      ],
      "name": "merchants",
      "outputs": [
        {
          "internalType": "bool",
          "name": "",
          "type": "bool"
        }
      ],
      "stateMutability": "view",
      "type": "function"
    },
    {
      "inputs": [
        {
          "internalType": "address",
          "name": "",
          "type": "address"
        }
      ],
      "name": "nonces",
      "outputs": [
        {
          "internalType": "uint256",
          "name": "",
          "type": "uint256"
        }
      ],
      "stateMutability": "view",
      "type": "function"
    },
    {
      "inputs": [],
      "name": "owner",
      "outputs": [
        {
          "internalType": "address",
          "name": "",
          "type": "address"
        }
      ],
      "stateMutability": "view",
      "type": "function"
    },
    {
      "inputs": [
        {
          "internalType": "bytes32",
          "name": "",
          "type": "bytes32"
        }
      ],
      "name": "payments",
      "outputs": [
        {
          "internalType": "address",
          "name": "merchant",
          "type": "address"
        },
        {
          "internalType": "address",
          "name": "token",
          "type": "address"
        },
        {
          "internalType": "euint64",
          "name": "amount",
          "type": "bytes32"
        },
        {
          "internalType": "uint256",
          "name": "timestamp",
          "type": "uint256"
        },
        {
          "internalType": "string",
          "name": "orderId",
          "type": "string"
        },
        {
          "internalType": "enum PaymentType",
          "name": "paymentType",
          "type": "uint8"
        },
        {
          "internalType": "uint256",
          "name": "productId",
          "type": "uint256"
        }
      ],
      "stateMutability": "view",
      "type": "function"
    },
    {
      "inputs": [
        {
          "internalType": "address",
          "name": "merchant",
          "type": "address"
        },
        {
          "internalType": "address",
          "name": "token",
          "type": "address"
        },
        {
          "internalType": "externalEuint64",
          "name": "encryptedAmount",
          "type": "bytes32"
        },
        {
          "internalType": "bytes",
          "name": "proof",
          "type": "bytes"
        },
        {
          "internalType": "string",
          "name": "orderId",
          "type": "string"
        },
        {
          "internalType": "enum PaymentType",
          "name": "paymentType",
          "type": "uint8"
        },
        {
          "internalType": "uint256",
          "name": "productId",
          "type": "uint256"
        }
      ],
      "name": "processPayment",
      "outputs": [
        {
          "internalType": "bytes32",
          "name": "paymentId",
          "type": "bytes32"
        }
      ],
      "stateMutability": "nonpayable",
      "type": "function"
    },
    {
      "inputs": [
        {
          "internalType": "address",
          "name": "payer",
          "type": "address"
        },
        {
          "internalType": "address",
          "name": "merchant",
          "type": "address"
        },
        {
          "internalType": "address",
          "name": "token",
          "type": "address"
        },
        {
          "internalType": "externalEuint64",
          "name": "encryptedAmount",
          "type": "bytes32"
        },
        {
          "internalType": "bytes",
          "name": "proof",
          "type": "bytes"
        },
        {
          "internalType": "uint256",
          "name": "deadline",
          "type": "uint256"
        },
        {
          "internalType": "bytes",
          "name": "signature",
          "type": "bytes"
        },
        {
          "internalType": "string",
          "name": "orderId",
          "type": "string"
        },
        {
          "internalType": "enum PaymentType",
          "name": "paymentType",
          "type": "uint8"
        },
        {
          "internalType": "uint256",
          "name": "productId",
          "type": "uint256"
        }
      ],
      "name": "processPaymentFor",
      "outputs": [
        {
          "internalType": "bytes32",
          "name": "paymentId",
          "type": "bytes32"
        }
      ],
      "stateMutability": "nonpayable",
      "type": "function"
    },
    {
      "inputs": [
        {
          "internalType": "bytes32",
          "name": "paymentId",
          "type": "bytes32"
        },
        {
          "internalType": "address",
          "name": "customer",
          "type": "address"
        },
        {
          "internalType": "address",
          "name": "merchant",
          "type": "address"
        }
      ],
      "name": "processRefund",
      "outputs": [],
      "stateMutability": "nonpayable",
      "type": "function"
    },
    {
      "inputs": [],
      "name": "productRegistry",
      "outputs": [
        {
          "internalType": "address",
          "name": "",
          "type": "address"
        }
      ],
      "stateMutability": "view",
      "type": "function"
    },
    {
      "inputs": [
        {
          "internalType": "address",
          "name": "",
          "type": "address"
        }
      ],
      "name": "refundManagers",
      "outputs": [
        {
          "internalType": "bool",
          "name": "",
          "type": "bool"
        }
      ],
      "stateMutability": "view",
      "type": "function"
    },
    {
      "inputs": [
        {
          "internalType": "bytes32",
          "name": "",
          "type": "bytes32"
        }
      ],
      "name": "refunded",
      "outputs": [
        {
          "internalType": "bool",
          "name": "",
          "type": "bool"
        }
      ],
      "stateMutability": "view",
      "type": "function"
    },
    {
      "inputs": [
        {
          "internalType": "address",
          "name": "merchant",
          "type": "address"
        }
      ],
      "name": "registerMerchant",
      "outputs": [],
      "stateMutability": "nonpayable",
      "type": "function"
    },
    {
      "inputs": [
        {
          "internalType": "address",
          "name": "merchant",
          "type": "address"
        }
      ],
      "name": "removeMerchant",
      "outputs": [],
      "stateMutability": "nonpayable",
      "type": "function"
    },
    {
      "inputs": [
        {
          "internalType": "address",
          "name": "_productRegistry",
          "type": "address"
        }
      ],
      "name": "setProductRegistry",
      "outputs": [],
      "stateMutability": "nonpayable",
      "type": "function"
    },
    {
      "inputs": [
        {
          "internalType": "address",
          "name": "refundManager",
          "type": "address"
        },
        {
          "internalType": "bool",
          "name": "enabled",
          "type": "bool"
        }
      ],
      "name": "setRefundManager",
      "outputs": [],
      "stateMutability": "nonpayable",
      "type": "function"
    },
    {
      "inputs": [
        {
          "internalType": "address",
          "name": "newOwner",
          "type": "address"
        }
      ],
      "name": "transferOwnership",
      "outputs": [],
      "stateMutability": "nonpayable",
      "type": "function"
    }
  ],
  "bytecode": "0x60a0604052346102bd57610011610313565b50466001036101d157610022610313565b5060405161002f816102c1565b5f81525f60208201525f60408201525b80517f9e7b61f58c47dc699ac88507c4f5bb9f121c03808c5676a8078fe583e464970080546001600160a01b03199081166001600160a01b039384161790915560208301517f9e7b61f58c47dc699ac88507c4f5bb9f121c03808c5676a8078fe583e4649701805483169184169190911790556040928301517f9e7b61f58c47dc699ac88507c4f5bb9f121c03808c5676a8078fe583e46497028054831691909316179091555f8054909116331790558051906100fc90826102f0565b600e81526d5061796d656e744761746577617960901b602090910152604080517fe925ec51259f5111f32b6609910cfb3731de17f2ee3e6280a2fb99f82b8116589161014890826102f0565b600181526020810190603160f81b82525190206040519060208201927f8b73c3c69bb8fe3d512ecc4cf759cc79239f7b179b0ffacaa9a75d522b39400f8452604083015260608201524660808201523060a082015260a081526101ac60c0826102f0565b519020608052604051612393908161033282396080518181816104a20152610d060152f35b4662aa36a703610240576101e3610313565b506040516101f0816102c1565b73f0ffdc93b7e186bc2f8cb3daa75d86d1930a433d81527392c920834ec8941d2c77d188936e1f7a6f49c127602082015273be0e383937d564d7ff0bc3b46c51f0bf8d5c311a604082015261003f565b46617a69036102ae57610251610313565b5060405161025e816102c1565b7350157cffd6bbfa2dece204a89ec419c23ef5755d815273e3a9105a3a932253a70f126eb1e3b589c643dd24602082015273be0e383937d564d7ff0bc3b46c51f0bf8d5c311a604082015261003f565b6373cac13b60e01b5f5260045ffd5b5f80fd5b606081019081106001600160401b038211176102dc57604052565b634e487b7160e01b5f52604160045260245ffd5b601f909101601f19168101906001600160401b038211908210176102dc57604052565b60405190610320826102c1565b5f604083828152826020820152015256fe60806040526004361015610011575f80fd5b5f5f3560e01c80630716326d14611253578063083e56d914610f9f5780630a212a8c14610e31578063107db63d14610d29578063133adab614610d6b57806315ce930e14610cb65780632be28b3e14610d295780633644e51514610cee5780634129a92514610cb65780634b0c5dde14610bb9578063584ba2f114610ae65780636dfee25414610aa95780637ecebe0014610a715780638927b03014610a565780638da5cb5b14610a30578063a0fbde81146102a8578063a89bbb5c1461095e578063e4b76f0814610888578063e66eefc8146107d6578063ee14e93914610799578063f05e0f7e1461076a578063f2fde38b146106b3578063f5a7754a146105fe578063fb481f05146102e0578063fbcdaa32146102a8578063fe14a3131461016c5763fff218c314610143575f80fd5b3461016957806003193601126101695760206001600160a01b0360015416604051908152f35b80fd5b503461016957602036600319011261016957338152600260205261019660ff6040832054166114e8565b33815260096020526040812060043582526020526040812054906101bb821515611580565b60408051906101ca8183611314565b600182526020820193601f1982013686378251156102945784526001600160a01b037f9e7b61f58c47dc699ac88507c4f5bb9f121c03808c5676a8078fe583e4649700541693843b15610290578151637d6e912360e11b815260206004820152925160248401819052604484019190855b81811061027a57505050828495818681819503925af190811561027157506102605750f35b8161026a91611314565b6101695780f35b513d84823e3d90fd5b825184526020938401939092019160010161023b565b8380fd5b634e487b7160e01b84526032600452602484fd5b50346101695760203660031901126101695760406020916001600160a01b036102cf611458565b168152600883522054604051908152f35b503461016957610140366003190112610169576102fb611458565b61030361142c565b9061030c611442565b9260643560843567ffffffffffffffff81116105fa5761033090369060040161146e565b60a435939160c43567ffffffffffffffff81116102905761035590369060040161146e565b94909360e43567ffffffffffffffff81116105f65761037890369060040161146e565b969095610104359860048a1015610290578c906001600160a01b03808e169283875260026020526103af60ff6040892054166114e8565b6103ba84151561149c565b16906103c78215156115cc565b6001600160a01b038d169586156105b15781421161056c578681526006602052604081208054915f1983146105585750936001600160a01b0396936104e593836104eb9760016104f49a9601905560405160208101908d82526020815261042f604082611314565b5190206040519360208501957ff11af1f37db055479f4936ae5a324e62b886bf5f8d9c74df67a4dbd6e23e129087528d60408701526060860152608085015260a084015260c083015260e082015260e0815261048d61010082611314565b519020604051602081019161190160f01b83527f000000000000000000000000000000000000000000000000000000000000000060228301526042820152604281526104da606282611314565b519020923691611634565b906121ed565b90929192612227565b16036105135760209861050b9861012435986116c8565b604051908152f35b60405162461bcd60e51b815260206004820152600d60248201527f426164207369676e6174757265000000000000000000000000000000000000006044820152606490fd5b634e487b7160e01b81526011600452602490fd5b60405162461bcd60e51b815260206004820152600760248201527f45787069726564000000000000000000000000000000000000000000000000006044820152606490fd5b60405162461bcd60e51b815260206004820152600d60248201527f496e76616c6964207061796572000000000000000000000000000000000000006044820152606490fd5b5080fd5b8280fd5b5034610169576020366003190112610169576001600160a01b03610620611458565b61062e828454163314611534565b16801561066e57806001600160a01b031960015416176001557f230ce6fc57de16df66b4c845563ecced8e707b047cc067d2ec648dc4ee50de1c8280a280f35b60405162461bcd60e51b815260206004820152601860248201527f496e76616c69642070726f6475637420726567697374727900000000000000006044820152606490fd5b5034610169576020366003190112610169576106cd611458565b8154906001600160a01b03808316916106e7833314611534565b1691821561072557826001600160a01b0319927f8be0079c531659141344cd1fd0a4f28419497f9722a3daafe3b4186f6b6457e08680a31617815580f35b60405162461bcd60e51b815260206004820152600d60248201527f496e76616c6964206f776e6572000000000000000000000000000000000000006044820152606490fd5b50346101695760203660031901126101695760ff60406020926004358152600584522054166040519015158152f35b50346101695760203660031901126101695760ff60406020926001600160a01b036107c2611458565b168152600284522054166040519015158152f35b503461016957602036600319011261016957600435808252600460205260408220906001600160a01b038254169161087060ff60406001600160a01b0360018501541696600385015495815260056020522054169260ff6005840154169361084560046006860154950161134a565b916040519788978852602088015260408701521515606086015260e0608086015260e08501906113ea565b9161087a8161140e565b60a084015260c08301520390f35b50346101695760e0366003190112610169576108a2611458565b6108aa61142c565b9060643567ffffffffffffffff8111610290576108cb90369060040161146e565b9060843567ffffffffffffffff811161095a576108ec90369060040161146e565b92909160a43594600486101561095657908161093460209961092d60ff60406001600160a01b0361050b9d9c9b9a9998169384815260028f522054166114e8565b151561149c565b6109486001600160a01b03881615156115cc565b60c4359660443591336116c8565b8780fd5b8580fd5b503461016957604036600319011261016957610978611458565b602435908115158092036105fa576001600160a01b039061099d828554163314611534565b169081156109eb5760207f8ba9bad651f858d7b25c489b8c4483e81e63f991fd08e7f93b60466fe11102df91838552600382526040852060ff1981541660ff8316179055604051908152a280f35b60405162461bcd60e51b815260206004820152601660248201527f496e76616c696420726566756e64206d616e61676572000000000000000000006044820152606490fd5b50346101695780600319360112610169576001600160a01b036020915416604051908152f35b5034610169578060031936011261016957602061050b61166a565b50346101695760203660031901126101695760406020916001600160a01b03610a98611458565b168152600683522054604051908152f35b50346101695760203660031901126101695760ff60406020926001600160a01b03610ad2611458565b168152600384522054166040519015158152f35b5034610169576020366003190112610169576001600160a01b03610b08611458565b610b16828454163314611534565b16610b2281151561149c565b808252600260205260ff604083205416610b7457808252600260205260408220805460ff191660011790557f19550584307f4a89125eb78409c1879e09efac4adc7fdeca99ad253057c5085e8280a280f35b60405162461bcd60e51b815260206004820152601260248201527f416c7265616479207265676973746572656400000000000000000000000000006044820152606490fd5b50346101695780600319360112610169573381526002602052610be260ff6040832054166114e8565b3381526007602052604081205490610bfb821515611580565b6040805190610c0a8183611314565b600182526020820193601f1982013686378251156102945784526001600160a01b037f9e7b61f58c47dc699ac88507c4f5bb9f121c03808c5676a8078fe583e4649700541693843b15610290578151637d6e912360e11b815260206004820152925160248401819052604484019190855b818110610ca057505050828495818681819503925af190811561027157506102605750f35b8251845260209384019390920191600101610c7b565b50346101695760203660031901126101695760406020916001600160a01b03610cdd611458565b168152600783522054604051908152f35b503461016957806003193601126101695760206040517f00000000000000000000000000000000000000000000000000000000000000008152f35b50346101695760403660031901126101695760406020916001600160a01b03610d50611458565b16815260098352818120602435825283522054604051908152f35b5034610169576020366003190112610169576001600160a01b03610d8d611458565b610d9b828454163314611534565b16808252600260205260ff60408320541615610dec57808252600260205260408220805460ff191690557fae4bdf5adabafca6721399496d24fe50fb6564effcb386fbae92de33540763bc8280a280f35b60405162461bcd60e51b815260206004820152600e60248201527f4e6f7420726567697374657265640000000000000000000000000000000000006044820152606490fd5b5034610f42575f366003190112610f4257335f526002602052610e5a60ff60405f2054166114e8565b335f52600860205260405f20548015610f5a576040805191610e7c8284611314565b600183526020830190601f198301368337835115610f465781526001600160a01b037f9e7b61f58c47dc699ac88507c4f5bb9f121c03808c5676a8078fe583e4649700541690813b15610f42578251637d6e912360e11b815260206004820152935160248501819052849160448301915f5b818110610f295750505091815f81819503925af1908115610f205750610f12575080f35b610f1e91505f90611314565b005b513d5f823e3d90fd5b8251845287945060209384019390920191600101610eee565b5f80fd5b634e487b7160e01b5f52603260045260245ffd5b60405162461bcd60e51b815260206004820152600f60248201527f4e6f20726566756e6420746f74616c00000000000000000000000000000000006044820152606490fd5b34610f42576060366003190112610f4257600435610fbb61142c565b610fc3611442565b825f52600460205260405f206001600160a01b0381541690610ff06001600160a01b03841680931461149c565b845f52600560205260ff60405f20541661120e576003810154156111c95781331480156111b3575b1561116e57602061109a946001600160a01b036002840193611044600186549201918383541690611eda565b61105085543090611eda565b61105b838654611eda565b54168354915f60405180998195829463eb3155b560e01b84528b600485016001600160a01b036040929594938160608401971683521660208201520152565b03925af1801561116357611130575b6110e3935054815f52600860205260405f205480155f146111205750905b5f5260086020528060405f20556110de3082611eda565b611eda565b805f52600560205260405f20600160ff198254161790557f0bd51abe3f427dc01bd6abf9a29c17987032b461fe88edfdd0e18ab474e148b35f80a2005b9061112a91611f55565b906110c7565b6020843d60201161115b575b8161114960209383611314565b81010312610f42576110e393506110a9565b3d915061113c565b6040513d5f823e3d90fd5b60405162461bcd60e51b815260206004820152600e60248201527f4e6f7420617574686f72697a65640000000000000000000000000000000000006044820152606490fd5b50335f52600360205260ff60405f205416611018565b60405162461bcd60e51b815260206004820152601660248201527f5061796d656e7420646f6573206e6f74206578697374000000000000000000006044820152606490fd5b60405162461bcd60e51b815260206004820152601060248201527f416c726561647920726566756e646564000000000000000000000000000000006044820152606490fd5b34610f42576020366003190112610f42576004355f52600460205260405f206001600160a01b038154166001600160a01b0360018301541691600281015461087060038301546112a56004850161134a565b90600660ff60058701541695015493604051978897885260208801526040870152606086015260e0608086015260e08501906113ea565b90600182811c9216801561130a575b60208310146112f657565b634e487b7160e01b5f52602260045260245ffd5b91607f16916112eb565b90601f8019910116810190811067ffffffffffffffff82111761133657604052565b634e487b7160e01b5f52604160045260245ffd5b9060405191825f82549261135d846112dc565b80845293600181169081156113c85750600114611384575b5061138292500383611314565b565b90505f9291925260205f20905f915b8183106113ac575050906020611382928201015f611375565b6020919350806001915483858901015201910190918492611393565b90506020925061138294915060ff191682840152151560051b8201015f611375565b805180835260209291819084018484015e5f828201840152601f01601f1916010190565b6004111561141857565b634e487b7160e01b5f52602160045260245ffd5b602435906001600160a01b0382168203610f4257565b604435906001600160a01b0382168203610f4257565b600435906001600160a01b0382168203610f4257565b9181601f84011215610f425782359167ffffffffffffffff8311610f425760208381860195010111610f4257565b156114a357565b60405162461bcd60e51b815260206004820152601060248201527f496e76616c6964206d65726368616e74000000000000000000000000000000006044820152606490fd5b156114ef57565b60405162461bcd60e51b815260206004820152601760248201527f4e6f742072656769737465726564206d65726368616e740000000000000000006044820152606490fd5b1561153b57565b60405162461bcd60e51b815260206004820152600960248201527f4e6f74206f776e657200000000000000000000000000000000000000000000006044820152606490fd5b1561158757565b60405162461bcd60e51b815260206004820152600860248201527f4e6f20746f74616c0000000000000000000000000000000000000000000000006044820152606490fd5b156115d357565b60405162461bcd60e51b815260206004820152600d60248201527f496e76616c696420746f6b656e000000000000000000000000000000000000006044820152606490fd5b67ffffffffffffffff811161133657601f01601f191660200190565b92919261164082611618565b9161164e6040519384611314565b829481845281830111610f42578281602093845f960137010152565b4660010361167757600190565b4662aa36a7036116875761271190565b617a694614611694575f90565b5f1990565b3d156116c3573d906116aa82611618565b916116b86040519384611314565b82523d5f602084013e565b606090565b9190959697946116e361174194956020929c9b9c3691611634565b5f956001600160a01b037f9e7b61f58c47dc699ac88507c4f5bb9f121c03808c5676a8078fe583e46497015416905f60405180988195829463045fc19560e11b845260048401523360248401526080604484015260848301906113ea565b6005606483015203925af1928315611163575f93611ea6575b506001600160a01b037f9e7b61f58c47dc699ac88507c4f5bb9f121c03808c5676a8078fe583e46497005416803b15610f4257604051630f8e573b60e21b815260048101859052336024820152905f908290604490829084905af1801561116357611e91575b506117cb3084611eda565b6117d58184611eda565b82916117e08661140e565b600186148015611e7e575b611cb4575b60405163eb3155b560e01b81526001600160a01b0382811660048301528881166024830152604482019490945293509181169160208480606481015b038188875af1938415611ca9578594611c75575b5061184b3085611eda565b6040519060208201926bffffffffffffffffffffffff198960601b1684526bffffffffffffffffffffffff199060601b1660348301524260488301524360688301526bffffffffffffffffffffffff199060601b166088820152607c81526118b4609c82611314565b519020986040519060e0820182811067ffffffffffffffff821117611c61576040526001600160a01b038716825260208201928352604082018481526060830191428352611903368c8c611634565b60808501526119118861140e565b8760a085015260c08401528b865260046020526001600160a01b0360408720948180865116166001600160a01b031987541617865551166001600160a01b036001860191166001600160a01b0319825416179055516002840155516003830155608081015180519067ffffffffffffffff8211611c61579183918a97959361199f60048f9b999701546112dc565b601f8111611bfa575b50602090601f8311600114611b3957947f7db06e161a551d3bbbb0a181eefd6b20b869ef1ea21572ea656021567a3818629a9b9794600660c0899686611ad3978e9b9760609f986001600160a01b039e92611b2e575b50508160011b915f199060031b1c19161760048501555b6005840160a0820151611a278161140e565b611a308161140e565b60ff801983541691161790550151910155611a4b8282611eda565b868216845260076020528082604086205480155f14611b1c5750611a84915b898216875260076020528060408820556110de3082611eda565b62278d004204908783168552600960205260408520828652602052604085205480155f14611b0c5750905b87831685526009602052604085209085526020528060408520556110de3082611eda565b6040519687956040875281604088015287870137858a86010152611af68161140e565b60208401521695601f01601f19168101030190a3565b90611b1691611f55565b90611aaf565b611a8492611b2991611f55565b611a6a565b015190505f806119fe565b9060048501875280872091875b601f1985168110611bc9575094600660c06001600160a01b0399967f7db06e161a551d3bbbb0a181eefd6b20b869ef1ea21572ea656021567a3818629e9f9b98878e9b969760609f98600193611ad39b601f19811610611bb1575b505050811b016004850155611a15565b01515f1960f88460031b161c191690555f8080611ba1565b939597999b5091819496989a50600160209291839285015181550194019201918c99979593918f9b99979593611b46565b91938096989a50600491939597995001875260208720601f840160051c81019160208510611c57575b918c99979593918f9b99979593601f0160051c01905b818110611c4657506119a8565b8781558f9b508d9a50600101611c39565b9091508190611c23565b634e487b7160e01b86526041600452602486fd5b9093506020813d602011611ca1575b81611c9160209383611314565b81010312610f425751925f611840565b3d9150611c84565b6040513d87823e3d90fd5b91506001600160a01b03600154168015611e3957604051630bdf3e3560e11b602082019081526001600160a01b0389166024830152604482018d9052869283929091908390611d1081606481015b03601f198101835282611314565b51925af1611d1c611699565b9015611d725760208151918180820193849201010312610f425761182c93611d48611d5792518261201c565b90611d516122a3565b916120b4565b915b611d633084611eda565b611d6d8284611eda565b6117f0565b5060015460405163c9ae9a1560e01b602082019081526001600160a01b03808a166024840152604483018e905287938493911691908390611db68160648101611d02565b51925af1611dc2611699565b9015611df45760208151918180820193849201010312610f425761182c93611d48611dee92518261201c565b91611d59565b60405162461bcd60e51b815260206004820152601160248201527f50726f64756374206e6f7420666f756e640000000000000000000000000000006044820152606490fd5b60405162461bcd60e51b815260206004820152601860248201527f50726f64756374207265676973747279206e6f742073657400000000000000006044820152606490fd5b50611e888661140e565b600286146117eb565b611e9e9194505f90611314565b5f925f6117c0565b9092506020813d602011611ed2575b81611ec260209383611314565b81010312610f425751915f61175a565b3d9150611eb5565b6001600160a01b037f9e7b61f58c47dc699ac88507c4f5bb9f121c03808c5676a8078fe583e4649700541691823b15610f4257604051635ca4b5b160e11b815260048101929092526001600160a01b03166024820152905f908290604490829084905af1801561116357611f4b5750565b5f61138291611314565b90811561200c575b8015611ffa575b60209060646001600160a01b037f9e7b61f58c47dc699ac88507c4f5bb9f121c03808c5676a8078fe583e46497015416935f604051958694859363022f65e760e31b8552600485015260248401528160448401525af1908115611163575f91611fcb575090565b90506020813d602011611ff2575b81611fe660209383611314565b81010312610f42575190565b3d9150611fd9565b5060206120056122a3565b9050611f64565b90506120166122a3565b90611f5d565b9081156120a4575b8015612092575b60209060646001600160a01b037f9e7b61f58c47dc699ac88507c4f5bb9f121c03808c5676a8078fe583e46497015416935f604051958694859363f77f3f1d60e01b8552600485015260248401528160448401525af1908115611163575f91611fcb575090565b50602061209d6122a3565b905061202b565b90506120ae6122a3565b90612024565b91908215612155575b8015612147575b8115612131575b6064602092935f6001600160a01b037f9e7b61f58c47dc699ac88507c4f5bb9f121c03808c5676a8078fe583e464970154166040519687958694637702dcff60e01b86526004860152602485015260448401525af1908115611163575f91611fcb575090565b60209150606461213f6122a3565b9250506120cb565b506121506122a3565b6120c4565b7f9e7b61f58c47dc699ac88507c4f5bb9f121c03808c5676a8078fe583e464970154604051639cd07acb60e01b81525f60048201529193506001600160a01b0316816044815f6020948160248401525af1908115611163575f916121bb575b50916120bd565b90506020813d6020116121e5575b816121d660209383611314565b81010312610f4257515f6121b4565b3d91506121c9565b815191906041830361221d576122169250602082015190606060408401519301515f1a90612304565b9192909190565b50505f9160029190565b6122308161140e565b80612239575050565b6122428161140e565b600181036122595763f645eedf60e01b5f5260045ffd5b6122628161140e565b6002810361227d575063fce698f760e01b5f5260045260245ffd5b6003906122898161140e565b146122915750565b6335e2f38360e21b5f5260045260245ffd5b7f9e7b61f58c47dc699ac88507c4f5bb9f121c03808c5676a8078fe583e464970154604051639cd07acb60e01b81525f6004820152906001600160a01b0316816044815f602094600560248401525af1908115611163575f91611fcb575090565b91907f7fffffffffffffffffffffffffffffff5d576e7357a4501ddfe92f46681b20a0841161237b579160209360809260ff5f9560405194855216868401526040830152606082015282805260015afa15611163575f516001600160a01b0381161561237157905f905f90565b505f906001905f90565b5050505f916003919056fea164736f6c634300081b000a",
  "linkReferences": {},
  "deployedLinkReferences": {}
}