{
  "_format": "hh-sol-artifact-1",
  "contractName": "ProductRegistry",
  "sourceName": "contracts/ProductRegistry.sol",
  "abi": [
    {
      "inputs": [],
      "stateMutability": "nonpayable",
      "type": "constructor"
    },
    {
      "inputs": [],
      "name": "ZamaProtocolUnsupported",
      "type": "error"
    },
    {
      "anonymous": false,
      "inputs": [
        {
          "indexed": true,
          "internalType": "address",
          "name": "newGateway",
          "type": "address"
        }
      ],
      "name": "GatewayUpdated",
      "type": "event"
    },
    {
      "anonymous": false,
      "inputs": [
        {
          "indexed": true,
          "internalType": "address",
          "name": "previousOwner",
          "type": "address"
        },
        {
          "indexed": true,
          "internalType": "address",
          "name": "newOwner",
          "type": "address"
        }
      ],
      "name": "OwnershipTransferred",
      "type": "event"
    },
    {
      "anonymous": false,
      "inputs": [
        {
          "indexed": true,
          "internalType": "address",
          "name": "merchant",
          "type": "address"
        },
        {
          "indexed": true,
          "internalType": "uint256",
          "name": "productId",
          "type": "uint256"
        }
      ],
      "name": "ProductDeactivated",
      "type": "event"
    },
    {
      "anonymous": false,
      "inputs": [
        {
          "indexed": true,
          "internalType": "address",
          "name": "merchant",
          "type": "address"
        },
        {
          "indexed": true,
          "internalType": "uint256",
          "name": "productId",
          "type": "uint256"
        },
        {
          "indexed": false,
          "internalType": "string",
          "name": "name",
          "type": "string"
        },
        {
          "indexed": false,
          "internalType": "enum ProductRegistry.ProductType",
          "name": "productType",
          "type": "uint8"
        },
        {
          "indexed": false,
          "internalType": "enum ProductRegistry.PricingMode",
          "name": "pricingMode",
          "type": "uint8"
        }
      ],
      "name": "ProductRegistered",
      "type": "event"
    },
    {
      "anonymous": false,
      "inputs": [
        {
          "indexed": true,
          "internalType": "address",
          "name": "merchant",
          "type": "address"
        },
        {
          "indexed": true,
          "internalType": "uint256",
          "name": "productId",
          "type": "uint256"
        }
      ],
      "name": "ProductUpdated",
      "type": "event"
    },
    {
      "inputs": [],
      "name": "confidentialProtocolId",
      "outputs": [
        {
          "internalType": "uint256",
          "name": "",
          "type": "uint256"
        }
      ],
      "stateMutability": "view",
      "type": "function"
    },
    {
      "inputs": [
        {
          "internalType": "uint256",
          "name": "productId",
          "type": "uint256"
        }
      ],
      "name": "deactivateProduct",
      "outputs": [],
      "stateMutability": "nonpayable",
      "type": "function"
    },
    {
      "inputs": [],
      "name": "gateway",
      "outputs": [
        {
          "internalType": "address",
          "name": "",
          "type": "address"
        }
      ],
      "stateMutability": "view",
      "type": "function"
    },
    {
      "inputs": [
        {
          "internalType": "address",
          "name": "merchant",
          "type": "address"
        },
        {
          "internalType": "uint256",
          "name": "productId",
          "type": "uint256"
        }
      ],
      "name": "getEncryptedPrice",
      "outputs": [
        {
          "internalType": "euint64",
          "name": "",
          "type": "bytes32"
        }
      ],
      "stateMutability": "view",
      "type": "function"
    },
    {
      "inputs": [
        {
          "internalType": "address",
          "name": "merchant",
          "type": "address"
        },
        {
          "internalType": "uint256",
          "name": "productId",
          "type": "uint256"
        }
      ],
      "name": "getProduct",
      "outputs": [
        {
          "internalType": "string",
          "name": "name",
          "type": "string"
        },
        {
          "internalType": "string",
          "name": "description",
          "type": "string"
        },
        {
          "internalType": "enum ProductRegistry.ProductType",
          "name": "productType",
          "type": "uint8"
        },
        {
          "internalType": "enum ProductRegistry.PricingMode",
          "name": "pricingMode",
          "type": "uint8"
        },
        {
          "internalType": "uint256",
          "name": "publicPrice",
          "type": "uint256"
        },
        {
          "internalType": "bool",
          "name": "active",
          "type": "bool"
        }
      ],
      "stateMutability": "view",
      "type": "function"
    },
    {
      "inputs": [
        {
          "internalType": "address",
          "name": "merchant",
          "type": "address"
        },
        {
          "internalType": "uint256",
          "name": "productId",
          "type": "uint256"
        }
      ],
      "name": "getPublicPriceAsEuint64",
      "outputs": [
        {
          "internalType": "euint64",
          "name": "",
          "type": "bytes32"
        }
      ],
      "stateMutability": "nonpayable",
      "type": "function"
    },
    {
      "inputs": [],
      "name": "owner",
      "outputs": [
        {
          "internalType": "address",
          "name": "",
          "type": "address"
        }
      ],
      "stateMutability": "view",
      "type": "function"
    },
    {
      "inputs": [
        {
          "internalType": "address",
          "name": "",
          "type": "address"
        }
      ],
      "name": "productCounts",
      "outputs": [
        {
          "internalType": "uint256",
          "name": "",
          "type": "uint256"
        }
      ],
      "stateMutability": "view",
      "type": "function"
    },
    {
      "inputs": [
        {
          "internalType": "address",
          "name": "",
          "type": "address"
        },
        {
          "internalType": "uint256",
          "name": "",
          "type": "uint256"
        }
      ],
      "name": "products",
      "outputs": [
        {
          "internalType": "address",
          "name": "merchant",
          "type": "address"
        },
        {
          "internalType": "string",
          "name": "name",
          "type": "string"
        },
        {
          "internalType": "string",
          "name": "description",
          "type": "string"
        },
        {
          "internalType": "enum ProductRegistry.ProductType",
          "name": "productType",
          "type": "uint8"
        },
        {
          "internalType": "enum ProductRegistry.PricingMode",
          "name": "pricingMode",
          "type": "uint8"
        },
        {
          "internalType": "uint256",
          "name": "publicPrice",
          "type": "uint256"
        },
        {
          "internalType": "euint64",
          "name": "encryptedPrice",
          "type": "bytes32"
        },
        {
          "internalType": "bool",
          "name": "active",
          "type": "bool"
        },
        {
          "internalType": "uint256",
          "name": "createdAt",
          "type": "uint256"
        }
      ],
      "stateMutability": "view",
      "type": "function"
    },
    {
      "inputs": [
        {
          "internalType": "string",
          "name": "name",
          "type": "string"
        },
        {
          "internalType": "string",
          "name": "description",
          "type": "string"
        },
        {
          "internalType": "enum ProductRegistry.ProductType",
          "name": "productType",
          "type": "uint8"
        },
        {
          "internalType": "uint256",
          "name": "price",
          "type": "uint256"
        }
      ],
      "name": "registerProduct",
      "outputs": [
        {
          "internalType": "uint256",
          "name": "productId",
          "type": "uint256"
        }
      ],
      "stateMutability": "nonpayable",
      "type": "function"
    },
    {
      "inputs": [
        {
          "internalType": "string",
          "name": "name",
          "type": "string"
        },
        {
          "internalType": "string",
          "name": "description",
          "type": "string"
        },
        {
          "internalType": "enum ProductRegistry.ProductType",
          "name": "productType",
          "type": "uint8"
        },
        {
          "internalType": "externalEuint64",
          "name": "encryptedPrice",
          "type": "bytes32"
        },
        {
          "internalType": "bytes",
          "name": "proof",
          "type": "bytes"
        }
      ],
      "name": "registerProductEncrypted",
      "outputs": [
        {
          "internalType": "uint256",
          "name": "productId",
          "type": "uint256"
        }
      ],
      "stateMutability": "nonpayable",
      "type": "function"
    },
    {
      "inputs": [
        {
          "internalType": "string[]",
          "name": "names",
          "type": "string[]"
        },
        {
          "internalType": "string[]",
          "name": "descriptions",
          "type": "string[]"
        },
        {
          "internalType": "enum ProductRegistry.ProductType[]",
          "name": "productTypes",
          "type": "uint8[]"
        },
        {
          "internalType": "uint256[]",
          "name": "prices",
          "type": "uint256[]"
        }
      ],
      "name": "registerProductsBatch",
      "outputs": [
        {
          "internalType": "uint256[]",
          "name": "productIds",
          "type": "uint256[]"
        }
      ],
      "stateMutability": "nonpayable",
      "type": "function"
    },
    {
      "inputs": [
        {
          "internalType": "address",
          "name": "_gateway",
          "type": "address"
        }
      ],
      "name": "setGateway",
      "outputs": [],
      "stateMutability": "nonpayable",
      "type": "function"
    },
    {
      "inputs": [
        {
          "internalType": "address",
          "name": "newOwner",
          "type": "address"
        }
      ],
      "name": "transferOwnership",
      "outputs": [],
      "stateMutability": "nonpayable",
      "type": "function"
    },
    {
      "inputs": [
        {
          "internalType": "uint256",
          "name": "productId",
          "type": "uint256"
        },
        {
          "internalType": "uint256",
          "name": "newPrice",
          "type": "uint256"
        }
      ],
      "name": "updatePrice",
      "outputs": [],
      "stateMutability": "nonpayable",
      "type": "function"
    },
    {
      "inputs": [
        {
          "internalType": "uint256",
          "name": "productId",
          "type": "uint256"
        },
        {
          "internalType": "externalEuint64",
          "name": "newPrice",
          "type": "bytes32"
        },
        {
          "internalType": "bytes",
          "name": "proof",
          "type": "bytes"
        }
      ],
      "name": "updatePriceEncrypted",
      "outputs": [],
      "stateMutability": "nonpayable",
      "type": "function"
    },
    {
      "inputs": [
        {
          "internalType": "uint256",
          "name": "productId",
          "type": "uint256"
        },
        {
          "internalType": "string",
          "name": "name",
          "type": "string"
        },
        {
          "internalType": "string",
          "name": "description",
          "type": "string"
        },
        {
          "internalType": "bool",
          "name": "active",
          "type": "bool"
        }
      ],
      "name": "updateProduct",
      "outputs": [],
      "stateMutability": "nonpayable",
      "type": "function"
    }
  ],
  "bytecode": "0x6080604052346102045761001161023b565b50466001036101205761002261023b565b5061002b610208565b5f81525f60208201525f60408201525b80517f9e7b61f58c47dc699ac88507c4f5bb9f121c03808c5676a8078fe583e464970080546001600160a01b039283166001600160a01b03199182161790915560208301517f9e7b61f58c47dc699ac88507c4f5bb9f121c03808c5676a8078fe583e464970180549184169183169190911790556040928301517f9e7b61f58c47dc699ac88507c4f5bb9f121c03808c5676a8078fe583e4649702805491909316908216179091555f8054339216821781559151917f8be0079c531659141344cd1fd0a4f28419497f9722a3daafe3b4186f6b6457e08180a3611e6390816102568239f35b4662aa36a70361018b5761013261023b565b5061013b610208565b73f0ffdc93b7e186bc2f8cb3daa75d86d1930a433d81527392c920834ec8941d2c77d188936e1f7a6f49c127602082015273be0e383937d564d7ff0bc3b46c51f0bf8d5c311a604082015261003b565b46617a69036101f55761019c61023b565b506101a5610208565b7350157cffd6bbfa2dece204a89ec419c23ef5755d815273e3a9105a3a932253a70f126eb1e3b589c643dd24602082015273be0e383937d564d7ff0bc3b46c51f0bf8d5c311a604082015261003b565b6373cac13b60e01b5f5260045ffd5b5f80fd5b60405190606082016001600160401b0381118382101761022757604052565b634e487b7160e01b5f52604160045260245ffd5b610243610208565b905f82525f60208301525f604083015256fe6080806040526004361015610012575f80fd5b5f3560e01c9081630fce668c1461171357508063116191b6146116ed57806317be7c6a1461157d5780631cde1682146111b857806369d5f81e146110f857806382367b2d146110575780638927b030146110355780638da5cb5b1461101057806390646b4a14610f5d578063ad46b9c214610a7d578063aefd3e3014610729578063c38d97ff146104ab578063c9ae9a1514610455578063ea2f2f6814610300578063f2fde38b1461024b578063fc640949146101615763fd77e5de146100d7575f80fd5b3461015d57602036600319011261015d57600435335f52600260205260405f20815f52602052610115336001600160a01b0360405f20541614611aaa565b335f52600260205260405f20815f52602052600660405f200160ff198154169055337fe979a5e382c5295f26a3eb6133702a5e6fb0df2d1de36e8c939af39f299af39e5f80a3005b5f80fd5b3461015d57604036600319011261015d576001600160a01b03610182611747565b165f52600260205260405f206024355f5260205260405f206001600160a01b038154166101b160018301611871565b916101be60028201611871565b600382015491600481015460058201549061023061020f600760ff600687015416950154956102016040519a8b9a8b5261012060208c01526101208b019061178b565b9089820360408b015261178b565b956102206060890160ff83166117af565b60ff608089019160081c166117bc565b60a086015260c0850152151560e08401526101008301520390f35b3461015d57602036600319011261015d57610264611747565b5f54906001600160a01b038083169161027e833314611af6565b169182156102bb57826001600160a01b0319927f8be0079c531659141344cd1fd0a4f28419497f9722a3daafe3b4186f6b6457e05f80a316175f55005b60405162461bcd60e51b815260206004820152600d60248201527f496e76616c6964206f776e6572000000000000000000000000000000000000006044820152606490fd5b3461015d57606036600319011261015d5760043560443567ffffffffffffffff811161015d5761033490369060040161175d565b335f52600260205260405f20835f5260205261035e336001600160a01b0360405f20541614611aaa565b335f52600260205260405f20835f5260205260405f209160ff600384015460081c166002811015610441576001036103fc576103a16103a99160059336916119cb565b602435611c88565b916103b43084611ddb565b6103be3384611ddb565b6103d36001600160a01b036001541684611ddb565b0155337f1f847390ac5b4b588f1c28228b7a966d6a9d5c3e6ad0dfba319f709c7642137b5f80a3005b60405162461bcd60e51b815260206004820152601560248201527f4e6f7420656e637279707465642070726963696e6700000000000000000000006044820152606490fd5b634e487b7160e01b5f52602160045260245ffd5b3461015d57604036600319011261015d576001600160a01b03610476611747565b61048582600154163314611911565b165f52600260205260405f206024355f526020526020600560405f200154604051908152f35b3461015d57608036600319011261015d5760043560243567ffffffffffffffff811161015d576104df90369060040161175d565b60443567ffffffffffffffff811161015d576104ff90369060040161175d565b60643593841515850361015d57335f52600260205260405f20865f52602052610536336001600160a01b0360405f20541614611aaa565b335f52600260205260405f20865f5260205260405f2093600185019167ffffffffffffffff82116106b1576105758261056f85546117fa565b85611a1d565b5f90601f83116001146106c5576105a392915f918361063a575b50508160011b915f199060031b1c19161790565b90555b600283019167ffffffffffffffff82116106b1576105c88261056f85546117fa565b5f90601f83116001146106455782610613969593600695936105fe935f9261063a5750508160011b915f199060031b1c19161790565b90555b019060ff801983541691151516179055565b337f1f847390ac5b4b588f1c28228b7a966d6a9d5c3e6ad0dfba319f709c7642137b5f80a3005b01359050898061058f565b601f19831691845f5260205f20925f5b81811061069957509260019285926106139998966006989610610680575b505050811b019055610601565b01355f19600384901b60f8161c19169055888080610673565b91936020600181928787013581550195019201610655565b634e487b7160e01b5f52604160045260245ffd5b601f19831691845f5260205f20925f5b81811061071157509084600195949392106106f8575b505050811b0190556105a6565b01355f19600384901b60f8161c191690558880806106eb565b919360206001819287870135815501950192016106d5565b3461015d57608036600319011261015d5760043567ffffffffffffffff811161015d5761075a90369060040161175d565b9060243567ffffffffffffffff811161015d5761077b90369060040161175d565b909160443592600484101561015d57335f52600360205260405f20938454946107a3866119a9565b90556107ad611bf8565b956107db604051936107be85611832565b3385526107cc3684886119cb565b966020860197885236916119cb565b926040810193845260608101956107f28488611a11565b60808201905f825260a08301996064358b5260c0840190815260e084019660018852610100850192428452335f52600260205260405f208c5f526020526001600160a01b038060405f20975116166001600160a01b031987541617865560018601905180519067ffffffffffffffff82116106b1576108758261056f85546117fa565b602090601f8311600114610a1a576108a392915f9183610a0f5750508160011b915f199060031b1c19161790565b90555b518051600286019167ffffffffffffffff82116106b1576108cb8261056f85546117fa565b602090601f83116001146109ac576108f992915f91836109a15750508160011b915f199060031b1c19161790565b90555b60038401985196600488101561044157895493519160028310156104415760209c8c9b7f0549b0c9b61f50025169236cbcd387973c0ea87ac29975235764e728c50c12869a60079760ff61ff006109819860081b1692169061ffff191617179055516004870155516005860155511515600685019060ff801983541691151516179055565b51910155610996604051928392339684611a6c565b0390a3604051908152f35b015190508f8061058f565b90601f19831691845f52815f20925f5b8181106109f757509084600195949392106109df575b505050811b0190556108fc565b01515f1960f88460031b161c191690558e80806109d2565b929360206001819287860151815501950193016109bc565b015190505f8061058f565b90601f19831691845f52815f20925f5b818110610a655750908460019594939210610a4d575b505050811b0190556108a6565b01515f1960f88460031b161c191690558f8080610a40565b92936020600181928786015181550195019301610a2a565b3461015d57608036600319011261015d5760043567ffffffffffffffff811161015d57610aae9036906004016117c9565b60243567ffffffffffffffff811161015d57610ace9036906004016117c9565b929060443567ffffffffffffffff811161015d57610af09036906004016117c9565b929060643567ffffffffffffffff811161015d57610b129036906004016117c9565b959092610b20888314611b42565b610b2b868314611b42565b610b36878314611b42565b8115610f1857610b4582611b8e565b97610b53604051998a61184f565b828952610b5f83611b8e565b60208a019890601f1901368a375f5b848110610bb957898b604051918291602083019060208452518091526040830191905f5b818110610ba0575050500390f35b8251845285945060209384019390920191600101610b92565b80838a828b610bfb610bf283610bea610be3998e8e335f52600360205260405f2080549d8e6119a9565b9055611ba6565b979094611ba6565b9390948d611be8565b3590600482101561015d57610c49610c15878f8b90611be8565b3594610c3a610c22611bf8565b9360405198610c308a611832565b338a5236916119cb565b946020880195865236916119cb565b9060408601918252610c5f606087019384611a11565b60808601945f865260a0870190815260c0870191825260e087019260018452610100880195428752335f52600260205260405f208b5f526020526001600160a01b038060405f209a5116166001600160a01b03198a541617895560018901905180519067ffffffffffffffff82116106b157610cdf8261056f85546117fa565b602090601f8311600114610eb557610d0d92915f9183610a0f5750508160011b915f199060031b1c19161790565b90555b518051600289019167ffffffffffffffff82116106b157610d358261056f85546117fa565b602090601f8311600114610e5257610d6392915f9183610a0f5750508160011b915f199060031b1c19161790565b90555b60038701935193600485101561044157805496519460028610156104415760079760ff61ff00610dc49860081b1692169061ffff191617179055516004870155516005860155511515600685019060ff801983541691151516179055565b519101558b51811015610e3e578160208d8360051b010152610de7818787611ba6565b9290610df4838d8b611be8565b3593600485101561015d576001947f0549b0c9b61f50025169236cbcd387973c0ea87ac29975235764e728c50c128691610e35604051928392339684611a6c565b0390a301610b6e565b634e487b7160e01b5f52603260045260245ffd5b90601f19831691845f52815f20925f5b818110610e9d5750908460019594939210610e85575b505050811b019055610d66565b01515f1960f88460031b161c191690555f8080610e78565b92936020600181928786015181550195019301610e62565b90601f19831691845f52815f20925f5b818110610f005750908460019594939210610ee8575b505050811b019055610d10565b01515f1960f88460031b161c191690555f8080610edb565b92936020600181928786015181550195019301610ec5565b60405162461bcd60e51b815260206004820152600b60248201527f456d7074792062617463680000000000000000000000000000000000000000006044820152606490fd5b3461015d57602036600319011261015d576001600160a01b03610f7e611747565b610f8c825f54163314611af6565b168015610fcb57806001600160a01b031960015416176001557ff01fde40131396fd2f417fae830fea338256f1ecc896f2fa4f0354fd4554712c5f80a2005b60405162461bcd60e51b815260206004820152600f60248201527f496e76616c6964206761746577617900000000000000000000000000000000006044820152606490fd5b3461015d575f36600319011261015d5760206001600160a01b035f5416604051908152f35b3461015d575f36600319011261015d57602061104f611dac565b604051908152f35b3461015d57604036600319011261015d57600435335f52600260205260405f20815f52602052611095336001600160a01b0360405f20541614611aaa565b335f52600260205260405f20815f5260205260405f2060ff600382015460081c166002811015610441576110c9901561195d565b6004602435910155337f1f847390ac5b4b588f1c28228b7a966d6a9d5c3e6ad0dfba319f709c7642137b5f80a3005b3461015d57604036600319011261015d576001600160a01b03611119611747565b165f52600260205260405f206024355f5260205261117960405f206003810154600482015460ff600684015416906111a8611187611165600261115e60018901611871565b9701611871565b60405197889760c0895260c089019061178b565b90878203602089015261178b565b936111986040870160ff83166117af565b60ff606087019160081c166117bc565b6080840152151560a08301520390f35b3461015d5760a036600319011261015d5760043567ffffffffffffffff811161015d576111e990369060040161175d565b9060243567ffffffffffffffff811161015d5761120a90369060040161175d565b60449291923593600485101561015d576084359367ffffffffffffffff851161015d5761126d61124161126596369060040161175d565b9690335f52600360205260405f209788549861125c8a6119a9565b905536916119cb565b606435611c88565b926112783085611ddb565b6112823385611ddb565b6112976001600160a01b036001541685611ddb565b6112c4604051926112a784611832565b3384526112b53686896119cb565b926020850193845236916119cb565b9060408301918252606083016112da8982611a11565b60808401926001845260a08501965f885260c0860190815260e086019160018352610100870194428652335f52600260205260405f208c5f526020526001600160a01b038060405f20995116166001600160a01b031989541617885560018801905180519067ffffffffffffffff82116106b15761135c8261056f85546117fa565b602090601f831160011461151a5761138a92915f9183610a0f5750508160011b915f199060031b1c19161790565b90555b518051600288019167ffffffffffffffff82116106b1576113b28261056f85546117fa565b602090601f83116001146114b7576113e092915f91836109a15750508160011b915f199060031b1c19161790565b90555b6003860192519760048910156104415783549551936002851015610441576114799960079760ff61ff006114459860081b1692169061ffff191617179055516004870155516005860155511515600685019060ff801983541691151516179055565b5191015580604051936060855281606086015260808501375f83820160800152601f01601f191682019360208301906117af565b6020927f0549b0c9b61f50025169236cbcd387973c0ea87ac29975235764e728c50c12868260016040869501526080813394030190a3604051908152f35b90601f19831691845f52815f20925f5b81811061150257509084600195949392106114ea575b505050811b0190556113e3565b01515f1960f88460031b161c191690558e80806114dd565b929360206001819287860151815501950193016114c7565b90601f19831691845f52815f20925f5b818110611565575090846001959493921061154d575b505050811b01905561138d565b01515f1960f88460031b161c191690558f8080611540565b9293602060018192878601518155019501930161152a565b3461015d57604036600319011261015d576001600160a01b0361159e611747565b6115ad82600154163314611911565b165f52600260205260405f206024355f5260205260405f2060ff600382015460081c16906002821015610441576115e66004921561195d565b015467ffffffffffffffff81116116a857602067ffffffffffffffff60446001600160a01b037f9e7b61f58c47dc699ac88507c4f5bb9f121c03808c5676a8078fe583e46497015416935f6040519586948593639cd07acb60e01b8552166004840152600560248401525af1801561169d575f9061166a575b604051908152602090f35b506020813d602011611695575b816116846020938361184f565b8101031261015d576020905161165f565b3d9150611677565b6040513d5f823e3d90fd5b60405162461bcd60e51b815260206004820152600f60248201527f507269636520746f6f206c6172676500000000000000000000000000000000006044820152606490fd5b3461015d575f36600319011261015d5760206001600160a01b0360015416604051908152f35b3461015d57602036600319011261015d576020906001600160a01b03611737611747565b165f526003825260405f20548152f35b600435906001600160a01b038216820361015d57565b9181601f8401121561015d5782359167ffffffffffffffff831161015d576020838186019501011161015d57565b805180835260209291819084018484015e5f828201840152601f01601f1916010190565b9060048210156104415752565b9060028210156104415752565b9181601f8401121561015d5782359167ffffffffffffffff831161015d576020808501948460051b01011161015d57565b90600182811c92168015611828575b602083101461181457565b634e487b7160e01b5f52602260045260245ffd5b91607f1691611809565b610120810190811067ffffffffffffffff8211176106b157604052565b90601f8019910116810190811067ffffffffffffffff8211176106b157604052565b9060405191825f825492611884846117fa565b80845293600181169081156118ef57506001146118ab575b506118a99250038361184f565b565b90505f9291925260205f20905f915b8183106118d35750509060206118a9928201015f61189c565b60209193508060019154838589010152019101909184926118ba565b9050602092506118a994915060ff191682840152151560051b8201015f61189c565b1561191857565b60405162461bcd60e51b815260206004820152600b60248201527f4e6f7420676174657761790000000000000000000000000000000000000000006044820152606490fd5b1561196457565b60405162461bcd60e51b815260206004820152601260248201527f4e6f74207075626c69632070726963696e6700000000000000000000000000006044820152606490fd5b5f1981146119b75760010190565b634e487b7160e01b5f52601160045260245ffd5b92919267ffffffffffffffff82116106b157604051916119f5601f8201601f19166020018461184f565b82948184528183011161015d578281602093845f960137010152565b60048210156104415752565b601f8211611a2a57505050565b5f5260205f20906020601f840160051c83019310611a62575b601f0160051c01905b818110611a57575050565b5f8155600101611a4c565b9091508190611a43565b9180608091611aa29396959660608652816060870152838601375f848201830152601f01601f19168301019360208301906117af565b60405f910152565b15611ab157565b60405162461bcd60e51b815260206004820152601060248201527f4e6f7420796f75722070726f64756374000000000000000000000000000000006044820152606490fd5b15611afd57565b60405162461bcd60e51b815260206004820152600960248201527f4e6f74206f776e657200000000000000000000000000000000000000000000006044820152606490fd5b15611b4957565b60405162461bcd60e51b815260206004820152600f60248201527f4c656e677468206d69736d6174636800000000000000000000000000000000006044820152606490fd5b67ffffffffffffffff81116106b15760051b60200190565b9190811015610e3e5760051b81013590601e198136030182121561015d57019081359167ffffffffffffffff831161015d57602001823603811361015d579190565b9190811015610e3e5760051b0190565b5f60206001600160a01b037f9e7b61f58c47dc699ac88507c4f5bb9f121c03808c5676a8078fe583e46497015416604460405180948193639cd07acb60e01b8352816004840152600560248401525af190811561169d575f91611c59575090565b90506020813d602011611c80575b81611c746020938361184f565b8101031261015d575190565b3d9150611c67565b611ceb916020916001600160a01b037f9e7b61f58c47dc699ac88507c4f5bb9f121c03808c5676a8078fe583e46497015416905f60405180968195829463045fc19560e11b8452600484015233602484015260806044840152608483019061178b565b6005606483015203925af190811561169d575f91611d7a575b506001600160a01b037f9e7b61f58c47dc699ac88507c4f5bb9f121c03808c5676a8078fe583e46497005416803b1561015d57604051630f8e573b60e21b815260048101839052336024820152905f908290604490829084905af1801561169d57611d6d575090565b5f611d779161184f565b90565b90506020813d602011611da4575b81611d956020938361184f565b8101031261015d57515f611d04565b3d9150611d88565b46600103611db957600190565b4662aa36a703611dc95761271190565b617a694614611dd6575f90565b5f1990565b6001600160a01b037f9e7b61f58c47dc699ac88507c4f5bb9f121c03808c5676a8078fe583e4649700541691823b1561015d57604051635ca4b5b160e11b815260048101929092526001600160a01b03166024820152905f908290604490829084905af1801561169d57611e4c5750565b5f6118a99161184f56fea164736f6c634300081b000a",
  "linkReferences": {},
  "deployedLinkReferences": {}
}