{
  "_format": "hh-sol-artifact-1",
  "contractName": "RefundManager",
  "sourceName": "contracts/RefundManager.sol",
  "abi": [
    {
      "inputs": [
        {
          "internalType": "address",
          "name": "gatewayAddress",
          "type": "address"
        }
      ],
      "stateMutability": "nonpayable",
      "type": "constructor"
    },
    {
      "inputs": [],
      "name": "ZamaProtocolUnsupported",
      "type": "error"
    },
    {
      "anonymous": false,
      "inputs": [
        {
          "indexed": true,
          "internalType": "address",
          "name": "previousOwner",
          "type": "address"
        },
        {
          "indexed": true,
          "internalType": "address",
          "name": "newOwner",
          "type": "address"
        }
      ],
      "name": "OwnershipTransferred",
      "type": "event"
    },
    {
      "anonymous": false,
      "inputs": [
        {
          "indexed": true,
          "internalType": "bytes32",
          "name": "requestId",
          "type": "bytes32"
        },
        {
          "indexed": true,
          "internalType": "bytes32",
          "name": "paymentId",
          "type": "bytes32"
        },
        {
          "indexed": true,
          "internalType": "address",
          "name": "merchant",
          "type": "address"
        },
        {
          "indexed": false,
          "internalType": "address",
          "name": "customer",
          "type": "address"
        }
      ],
      "name": "RefundProcessed",
      "type": "event"
    },
    {
      "anonymous": false,
      "inputs": [
        {
          "indexed": true,
          "internalType": "bytes32",
          "name": "requestId",
          "type": "bytes32"
        },
        {
          "indexed": true,
          "internalType": "bytes32",
          "name": "paymentId",
          "type": "bytes32"
        },
        {
          "indexed": true,
          "internalType": "address",
          "name": "merchant",
          "type": "address"
        },
        {
          "indexed": false,
          "internalType": "address",
          "name": "customer",
          "type": "address"
        }
      ],
      "name": "RefundQueued",
      "type": "event"
    },
    {
      "inputs": [],
      "name": "confidentialProtocolId",
      "outputs": [
        {
          "internalType": "uint256",
          "name": "",
          "type": "uint256"
        }
      ],
      "stateMutability": "view",
      "type": "function"
    },
    {
      "inputs": [],
      "name": "gateway",
      "outputs": [
        {
          "internalType": "contract IPaymentGateway",
          "name": "",
          "type": "address"
        }
      ],
      "stateMutability": "view",
      "type": "function"
    },
    {
      "inputs": [],
      "name": "owner",
      "outputs": [
        {
          "internalType": "address",
          "name": "",
          "type": "address"
        }
      ],
      "stateMutability": "view",
      "type": "function"
    },
    {
      "inputs": [
        {
          "internalType": "bytes32",
          "name": "requestId",
          "type": "bytes32"
        }
      ],
      "name": "processQueuedRefund",
      "outputs": [],
      "stateMutability": "nonpayable",
      "type": "function"
    },
    {
      "inputs": [
        {
          "internalType": "bytes32",
          "name": "paymentId",
          "type": "bytes32"
        },
        {
          "internalType": "address",
          "name": "customer",
          "type": "address"
        }
      ],
      "name": "queueRefund",
      "outputs": [
        {
          "internalType": "bytes32",
          "name": "requestId",
          "type": "bytes32"
        }
      ],
      "stateMutability": "nonpayable",
      "type": "function"
    },
    {
      "inputs": [
        {
          "internalType": "bytes32",
          "name": "",
          "type": "bytes32"
        }
      ],
      "name": "requests",
      "outputs": [
        {
          "internalType": "address",
          "name": "merchant",
          "type": "address"
        },
        {
          "internalType": "bytes32",
          "name": "paymentId",
          "type": "bytes32"
        },
        {
          "internalType": "address",
          "name": "customer",
          "type": "address"
        },
        {
          "internalType": "uint256",
          "name": "createdAt",
          "type": "uint256"
        },
        {
          "internalType": "bool",
          "name": "processed",
          "type": "bool"
        }
      ],
      "stateMutability": "view",
      "type": "function"
    },
    {
      "inputs": [
        {
          "internalType": "address",
          "name": "newOwner",
          "type": "address"
        }
      ],
      "name": "transferOwnership",
      "outputs": [],
      "stateMutability": "nonpayable",
      "type": "function"
    }
  ],
  "bytecode": "0x60a0604052346102af57604051601f610b3138819003918201601f19168301916001600160401b038311848410176102b3578084926020946040528339810103126102af57516001600160a01b038116908190036102af5761005f6102e6565b50466001036101cb576100706102e6565b506100796102c7565b5f81525f60208201525f60408201525b80517f9e7b61f58c47dc699ac88507c4f5bb9f121c03808c5676a8078fe583e464970080546001600160a01b03199081166001600160a01b039384161790915560208301517f9e7b61f58c47dc699ac88507c4f5bb9f121c03808c5676a8078fe583e4649701805483169184169190911790556040909201517f9e7b61f58c47dc699ac88507c4f5bb9f121c03808c5676a8078fe583e4649702805490931691161790558015610194576080525f80546001600160a01b031916339081178255604051917f8be0079c531659141344cd1fd0a4f28419497f9722a3daafe3b4186f6b6457e08180a3610830908161030182396080518181816101c10152818161056101526105de0152f35b60405162461bcd60e51b815260206004820152600f60248201526e496e76616c6964206761746577617960881b6044820152606490fd5b4662aa36a703610236576101dd6102e6565b506101e66102c7565b73f0ffdc93b7e186bc2f8cb3daa75d86d1930a433d81527392c920834ec8941d2c77d188936e1f7a6f49c127602082015273be0e383937d564d7ff0bc3b46c51f0bf8d5c311a6040820152610089565b46617a69036102a0576102476102e6565b506102506102c7565b7350157cffd6bbfa2dece204a89ec419c23ef5755d815273e3a9105a3a932253a70f126eb1e3b589c643dd24602082015273be0e383937d564d7ff0bc3b46c51f0bf8d5c311a6040820152610089565b6373cac13b60e01b5f5260045ffd5b5f80fd5b634e487b7160e01b5f52604160045260245ffd5b60405190606082016001600160401b038111838210176102b357604052565b6102ee6102c7565b905f82525f60208301525f604083015256fe6080806040526004361015610012575f80fd5b5f905f3560e01c9081630995db501461058557508063116191b6146105415780638927b0301461051e5780638da5cb5b146104f85780639d8669851461048a578063b74ec8301461017c5763f2fde38b1461006b575f80fd5b34610179576020366003190112610179576004356001600160a01b0381168091036101775781546001600160a01b038116908133036101325782156100ed578273ffffffffffffffffffffffffffffffffffffffff19927f8be0079c531659141344cd1fd0a4f28419497f9722a3daafe3b4186f6b6457e08680a31617815580f35b60405162461bcd60e51b815260206004820152600d60248201527f496e76616c6964206f776e6572000000000000000000000000000000000000006044820152606490fd5b60405162461bcd60e51b815260206004820152600960248201527f4e6f74206f776e657200000000000000000000000000000000000000000000006044820152606490fd5b505b80fd5b5034610179576040366003190112610179576004356024356001600160a01b038116908181036104865760405163ee14e93960e01b81523360048201526020816024817f00000000000000000000000000000000000000000000000000000000000000006001600160a01b03165afa90811561047b57859161043c575b50156103f75781156103b25760405160208101918483526bffffffffffffffffffffffff199060601b1660408201523360601b60548201524260688201524360888201526088815261024c60a8826107be565b519020918284526001602052600360408520015461036d5760405160a0810181811067ffffffffffffffff82111761035957602095916004916040523381528681018481526001600160a01b03604083018781526060840192428452828060406080880199808b528d815260018f52209651161673ffffffffffffffffffffffffffffffffffffffff1986541617855551600185015551166001600160a01b0360028401911673ffffffffffffffffffffffffffffffffffffffff19825416179055516003820155019051151560ff80198354169116179055604051918252827fc2d531f590359f50e2396d9fd1b4501fcb9762578b9b9f66a2739c5331b162bb853394a4604051908152f35b634e487b7160e01b86526041600452602486fd5b60405162461bcd60e51b815260206004820152600e60248201527f416c7265616479207175657565640000000000000000000000000000000000006044820152606490fd5b60405162461bcd60e51b815260206004820152601060248201527f496e76616c696420637573746f6d6572000000000000000000000000000000006044820152606490fd5b60405162461bcd60e51b815260206004820152601760248201527f4e6f742072656769737465726564206d65726368616e740000000000000000006044820152606490fd5b90506020813d602011610473575b81610457602093836107be565b8101031261046f5751801515810361046f575f6101f9565b8480fd5b3d915061044a565b6040513d87823e3d90fd5b8380fd5b503461017957602036600319011261017957604060a09160043581526001602052206001600160a01b03815416906001810154906001600160a01b0360028201541660ff60046003840154930154169260405194855260208501526040840152606083015215156080820152f35b50346101795780600319360112610179576001600160a01b036020915416604051908152f35b503461017957806003193601126101795760206105396107f4565b604051908152f35b503461017957806003193601126101795760206040516001600160a01b037f0000000000000000000000000000000000000000000000000000000000000000168152f35b9050346106ee5760203660031901126106ee5760043590815f52600160205260405f209060038201541561077c5750600481019160ff835416610737576001600160a01b038254163381036106f2576001600160a01b037f000000000000000000000000000000000000000000000000000000000000000016936001840191825460028601966001600160a01b0388541690803b156106ee575f9283606492604051968795869463083e56d960e01b86526004860152602485015260448401525af180156106e35761069d575b506001600160a01b03807f8427eb0db8fe30fc9ec754a29ef911a15499563f601e34a425f3bb874f01217393602093600160ff1982541617905554955416955416604051908152a480f35b60209196506001600160a01b037f8427eb0db8fe30fc9ec754a29ef911a15499563f601e34a425f3bb874f012173936106d75f83946107be565b5f989350935050610652565b6040513d5f823e3d90fd5b5f80fd5b60405162461bcd60e51b815260206004820152601060248201527f4e6f7420796f75722072657175657374000000000000000000000000000000006044820152606490fd5b60405162461bcd60e51b815260206004820152601160248201527f416c72656164792070726f6365737365640000000000000000000000000000006044820152606490fd5b62461bcd60e51b815260206004820152600f60248201527f556e6b6e6f776e207265717565737400000000000000000000000000000000006044820152606490fd5b90601f8019910116810190811067ffffffffffffffff8211176107e057604052565b634e487b7160e01b5f52604160045260245ffd5b4660010361080157600190565b4662aa36a7036108115761271190565b617a69461461081e575f90565b5f199056fea164736f6c634300081b000a",
  "linkReferences": {},
  "deployedLinkReferences": {}
}